:020000040800F2
:10000000D8070020310200087B1900087319000886
:1000100077190008D5050008B51E0008000000008B
:100020000000000000000000000000007F19000830
:10003000D9050008000000007D190008811900089A
:100040004B0200084B0200084B0200084B0200085C
:100050004B0200084B0200084B0200084B0200084C
:100060004B0200084B0200084B0200084B0200083C
:100070004B0200084B0200084B0200084B0200082C
:100080004B0200084B0200084B0200084B0200081C
:100090004B0200084B0200084B0200084B0200080C
:1000A0004B0200084B0200084B0200084B020008FC
:1000B0004B0200089D1900084B0200084B02000883
:1000C0004B0200084B0200084B0200084B020008DC
:1000D0004B020008A51E00084B0200084B02000856
:1000E0004B0200084B0200084B0200084B020008BC
:1000F0004B0200084B0200084B0200084B020008AC
:100100004B0200084B0200084B0200084B0200089B
:100110004B0200084B0200084B0200084B0200088B
:100120004B0200084B0200084B0200084B0200087B
:100130004B0200084B0200084B0200084B0200086B
:100140004B0200084B0200084B0200084B0200085B
:100150004B0200084B0200084B0200084B0200084B
:100160004B0200084B0200084B0200084B0200083B
:100170004B0200084B0200084B0200080000000080
:100180004B0200084B02000800F002F800F041F8B2
:100190000AA090E8000C82448344AAF10107DA45E2
:1001A00001D100F036F8AFF2090EBAE80F0013F0F3
:1001B000010F18BFFB1A43F0010318477421000018
:1001C00094210000103A24BF78C878C1FAD85207A9
:1001D00024BF30C830C144BF04680C6070470000C1
:1001E0000023002400250026103A28BF78C1FBD840
:1001F000520728BF30C148BF0B607047642900F028
:10020000EF80002070471FB502F080F81FBD10B5C9
:1002100010BD00F0ADF91146FFF7F5FF01F0B2FF98
:1002200000F0CBF903B4FFF7F2FF03BC01F060FE6E
:100230000948804709480047FEE7FEE7FEE7FEE77A
:10024000FEE7FEE7FEE7FEE7FEE7FEE704480549B6
:10025000054A064B7047000089190008890100080B
:10026000D8010020D8070020D8030020D8030020A0
:10027000704753EA020C00F069802DE9F04B4FF013
:100280000006002B1FBFB3FA83F503FA05F424FA26
:1002900005F65E4012BF1643B2FA82F502FA05F483
:1002A000C5F120051EBF22FA05FC44EA0C042035E6
:1002B00056EA044C4FEA144418BF641C4FF000087F
:1002C0004FF00009904271EB030C39D3002919BF9C
:1002D000B1FA81F701FA07F6B0FA80F700FA07F6EB
:1002E000C7F120071EBF20FA07FC46EA0C0620379C
:1002F000B6FBF4FCA7EB0507103F07F01F0BCBF193
:1003000020060CFA0BFB2CFA06F644BFB346002677
:10031000202FA4BF5E464FF0000B5BEA060C08BF1F
:100320004FF0010B19EB0B09ABFB027C48EB060805
:10033000C01B06FB02CC0BFB03CC71EB0C01C1E72D
:100340000B46024641464846BDE8F08B13B54FF0D8
:1003500000004FF00001AFF30080BDE81C40704783
:100360000FB4044910B503AA029800F0D3F810BCEA
:100370005DF814FB140000202DE9F0410E46044600
:10038000002020622046E168884730B3252805D048
:10039000D4E901219047206A401CF2E7E168204639
:1003A00000278847050018D0A5F14100192802D878
:1003B00020354FF400673246294620462760FFF774
:1003C0001DFF40B1012804D0F61D26F007060836AF
:1003D000D8E7361DD6E72846DAE7206ABDE8F0817F
:1003E0002DE9F0410646002410687529314616A50E
:1003F00010D0AFF30080002802DA404213A507E0D6
:1004000031688A0701D512A502E0490704D511A574
:10041000012401E0AFF3008000210A2206F1240745
:1004200009E0B0FBF2FCB0FBF2F302FB1C00303041
:1004300078541846491C0028F3D123462A463046F2
:10044000BDE8F04100F00CB8000000002D000000F5
:100450002B00000020000000704770477047704775
:100460002DE9F0470D4699469246044600F12408CE
:100470000168880604D5E06921F01001216000E0E0
:100480000120A84201DD471B00E00027A1697A197D
:1004900002EB0900081AA0612078C00602D42046A9
:1004A000AFF30080002608E0D4E901211AF8060025
:1004B0009047206A401C761C20624E45F4DB207871
:1004C000C0060AD52046AFF3008006E0D4E901213A
:1004D00030209047206A401C2062381EA7F1010797
:1004E000F4DC07E0D4E9012118F805009047206A00
:1004F000401C2062281EA5F10105F3DC2046AFF365
:1005000000802078000602D50220BDE8F087012097
:10051000FBE70000074B70B50D467B4400F011F877
:100520000446284600F020F810B14FF0FF3070BDAF
:10053000204670BD3F1A000001694A1C026108781C
:10054000704700B58FB0CDE9013100210591054913
:100550007944CDE9031011466846FFF70DFF0FB04F
:1005600000BD0000E5FFFFFF007B00F0800070474A
:10057000754600F02BF8AE4605006946534620F05C
:100580000700854618B020B5FFF760FEBDE82040A3
:100590004FF000064FF000074FF000084FF0000B3F
:1005A00021F00701AC46ACE8C009ACE8C009ACE8F2
:1005B000C009ACE8C0098D46704710B50446AFF3DA
:1005C00000802046BDE81040FFF72CBE0048704771
:1005D0007401002000BFFEE7704770B50446A56DAA
:1005E00000F07CF9064694F83500022808D08020F7
:1005F000606500BF002084F8340000BF012070BD9A
:100600002068006820F016002168086020684069B2
:1006100020F0800021684861206C08B9A06C28B1E6
:100620002068006820F008002168086020680068E1
:1006300020F00100216808600FE000F04FF9801BF6
:1006400005280AD92020606500BF002084F8340006
:1006500000BF032084F83500D1E72068006800F06F
:1006600001000028E9D194F85C103F208840A86080
:1006700000BF002084F8340000BF012084F835005A
:100680000020BCE7014691F83500022803D0802005
:10069000486501207047052081F83500086800682A
:1006A00020F001000A6810600020F3E7F8B5024668
:1006B0000B460025002400200021DEE0012606FA7A
:1006C00001F51E6806EA0504AC4275D11E7906F0F4
:1006D0000306012E04D01E7906F00306022E13D164
:1006E00090684F000326BE40B0434F00DE68BE4016
:1006F00030439060506801268E40B0431E79C6F3A7
:1007000000168E40304350601E7906F00306032E1B
:1007100009D0D0684F000326BE40B0434F009E680A
:10072000BE403043D0601E7906F00306022E13D17E
:10073000CF0802F1200656F827004E07F70E0F26C5
:10074000BE40B0434F07FF0E1E69BE403043CF0886
:1007500002F1200646F8270010684F000326BE402D
:10076000B0431E7906F003064F00BE4030431060D0
:100770005E6806F08056B6F1805F7DD100BF00262E
:100780000096404E366846F480463E4F3E603E46F8
:10079000366806F48046009600BF00BF3A4E8F08C8
:1007A00056F827008E07370F0F26BE40B043374E4E
:1007B000B24202D1002624E05EE0354EB24201D1C1
:1007C00001261EE0334EB24201D1022619E0324E1C
:1007D000B24201D1032614E0304EB24201D10426C8
:1007E0000FE02F4EB24201D105260AE02D4EB24253
:1007F00001D1062605E02C4EB24201D1072600E0C9
:1008000008268F073F0FBE4030431F4E8F0846F823
:100810002700264E3068A0435E6806F48036B6F5A1
:10082000803F00D12043214E3060361D3068A04308
:100830005E6806F40036B6F5003F00D120431B4E3B
:10084000361D3060361D3068A0435E6806F48016A1
:10085000B6F5801F00D12043144E08363060361D97
:100860003068A0435E6806F40016B6F5001F00D19C
:1008700020430E4E0C363060491C1029FFF41EAF89
:10088000F8BD000044380240083801400000024032
:100890000004024000080240000C02400010024028
:1008A0000014024000180240001C0240003C0140BD
:1008B00010B5426921EA020302EA010443EA044353
:1008C000836110BD0AB1816101E00B04836170474F
:1008D00001480068000C7047002004E001480068EF
:1008E00070470000040000200348006803490978AD
:1008F0000844014908607047040000200C000020F3
:1009000010B50A48006840F40070084908600846BD
:10091000006840F480600860032000F07FF80F203A
:1009200000F006F800F02AF8002010BD003C02405C
:1009300070B504460E4800784FF47A71B1FBF0F0C0
:100940000C490968B1FBF0F5284600F009FC08B134
:10095000012070BD102C07D200222146501E00F04D
:100960001EF80548046001E00120F2E70020F0E7EE
:100970000C00002000000020080000207047014605
:100980000846002809DB00F01F0301229A404309B2
:100990009B0003F1E023C3F8002100BF70472DE95D
:1009A000F05F80460D461646002701F085FA07469F
:1009B00039462A46334601F00700C0F1070ABAF16A
:1009C000040F02D94FF0040A01E0C0F1070AD14632
:1009D00000F1040ABAF1070F02D24FF0000A01E059
:1009E000A0F1030AD4464FF0010A0AFA09FAAAF163
:1009F000010A0AEA020A0AFA0CFA4FF0010B0BFA92
:100A00000CFBABF1010B0BEA030B4AEA0B0421468A
:100A1000404601F059FABDE8F09F000000BF00F029
:100A20000702064B19684FF6FF031940044B0B43AE
:100A300043EA0221014B196000BF70470CED00E052
:100A40000000FA0570B504460D460CB9012070BDD2
:100A50005848006800F00700A84209D255490D70B7
:100A60000846006800F00700A84201D00120EEE728
:100A7000207800F0020002281DD1207800F0040048
:100A8000042805D14C48006840F4E0504A49086009
:100A9000207800F00800082805D14748006840F495
:100AA0006040454908604448006820F0F000A168B3
:100AB000084341490860207800F00100A8B360684D
:100AC000012807D13C4808380068C0F34040B8B955
:100AD0000120BCE76068022802D06068032807D1C3
:100AE000354808380068C0F3406048B90120AEE7D7
:100AF000314808380068C0F3400008B90120A6E773
:100B00002D48006820F00300616808432A49086006
:100B1000FFF7E4FE064609E0FFF7E0FE801B41F226
:100B20008831884202D9032091E707E02248006813
:100B300000F00C006168B0EB810FEDD11D4800683A
:100B400000F00700A84209D91A490D70084600684C
:100B500000F00700A84201D0012078E7207800F0DB
:100B60000400042807D11448006820F4E050E1682C
:100B7000084311490860207800F00800082808D1CF
:100B80000D48006820F46040216940EAC1000A492C
:100B9000086000F03FF808490968C1F30311074AEB
:100BA000515CC8400649086006480068FFF7C0FE6F
:100BB00000204CE7003C02400838024016230008A1
:100BC0000000002008000020014800687047000075
:100BD0000000002000B5FFF7F7FF04490968C1F3E2
:100BE0008221034A515CC84000BD00000838024021
:100BF0002623000800B5FFF7E7FF04490968C1F3A1
:100C00004231034A515CC84000BD00000838024030
:100C1000262300082DE9F047002400250026A146E0
:100C20002548006800F00C0020B1042805D00828F1
:100C30003AD105E0DFF8849039E0DFF8849036E0BF
:100C40001D48001F006800F03F041B48001F00689B
:100C500000F4800078B11A481749091F0968C1F3E8
:100C60008811A0FB01700146224600233846FFF799
:100C700000FB05460EE011480F49091F0968C1F342
:100C80008811A0FB01700146224600233846FFF779
:100C9000F0FA05460848001F0068C0F30140401CF8
:100CA0004600B5FBF6F902E0DFF8109000BF00BF88
:100CB0004846BDE8F0870000083802400024F400F0
:100CC00000127A00F8B504460CB90120F8BD20786E
:100CD00000F00100002874D0F948006800F00C0012
:100CE00004280DD0F648006800F00C00082813D145
:100CF000F348001F006800F48000B0F5800F0BD1AE
:100D0000EF4808380068C0F34040002859D06068B8
:100D1000002856D10120D9E700BF6068B0F5803FB8
:100D200008D1E7480838006840F48030E4490839C1
:100D300008601EE06068B0F5A02F0DD1E0480838CB
:100D4000006840F48020DE490839086008460068E1
:100D500040F4803008600CE0D9480838006820F47E
:100D60008030D749083908600846006820F48020A0
:100D7000086000BF606890B1FFF7B0FD054606E06F
:100D8000FFF7ACFD401B642801D903209EE7CC4847
:100D900008380068C0F340400028F1D011E0FFF7A8
:100DA0009DFD054606E0FFF799FD401B642801D92B
:100DB00003208BE7C24808380068C0F34040002891
:100DC000F1D1207800F0020002285FD1BC48006811
:100DD00000F00C0058B1BA48006800F00C00082878
:100DE0001CD1B748001F006800F48000B0B9B448B7
:100DF00008380068C0F3400020B1E068012801D045
:100E0000012063E7AE480838006820F0F800216947
:100E100040EAC100AA490839086037E0E06800B339
:100E20000120A8490860FFF759FD054606E0FFF7D5
:100E300055FD401B022801D9032047E7A048083888
:100E40000068C0F340000028F1D09D4808380068D1
:100E500020F0F800216940EAC1009949083908608A
:100E600014E0002097490860FFF738FD054606E0CA
:100E7000FFF734FD401B022801D9032026E79048E4
:100E800008380068C0F340000028F1D1207800F055
:100E9000080008282CD16069A8B101208A4908609F
:100EA000FFF71CFD054606E0FFF718FD401B022872
:100EB00001D903200AE782486C300068C0F3400083
:100EC0000028F1D014E000207F490860FFF706FDFC
:100ED000054606E0FFF702FD401B022801D903206A
:100EE000F4E677486C300068C0F340000028F1D188
:100EF000207800F00400042870D1002770483830B2
:100F0000006800F0805090B900BF002000906C484D
:100F10003830006840F08050694938310860084630
:100F2000006800F08050009000BF00BF01276748B4
:100F3000006800F48070B0B96448006840F48070C4
:100F400062490860FFF7CAFC054606E0FFF7C6FCE9
:100F5000401B022801D90320B8E65C48006800F471
:100F600080700028F2D000BFA068012808D1544842
:100F70006830006840F001005149683108601DE0A8
:100F8000A06805280DD14E486830006840F0040084
:100F90004B49683108600846006840F0010008606D
:100FA0000CE047486830006820F00100444968318F
:100FB00008600846006820F00400086000BFA068D0
:100FC000A8B1FFF78BFC054609E0FFF787FC401B43
:100FD00041F28831884202D9032077E626E038487A
:100FE00068300068C0F340000028EED013E0FFF73F
:100FF00075FC054608E0FFF771FC401B41F28831A3
:10100000884201D9032061E62D4868300068C0F3AA
:1010100040000028EFD1012F07D12948383000685F
:1010200020F0805026493831086000BFA0690028B0
:1010300045D02348006800F00C0008285DD0A06966
:10104000022845D100201F490866FFF747FC0546E6
:1010500006E0FFF743FC401B022801D9032035E6D8
:10106000174808380068C0F340600028F1D1D4E97F
:1010700007010843616A40EA81110122A06AC2EBBC
:10108000500041EA00412C20005D41EA00600C491B
:10109000091F086001200B490866FFF71FFC054681
:1010A00006E0FFF71BFC401B022801D903200DE6D8
:1010B000034808380068C0F340600028F1D049E0D8
:1010C0000838024000004742800E4742007000404E
:1010D000002021490866FFF701FC054606E0FFF7FE
:1010E000FDFB401B022801D90320EFE51B480068E7
:1010F000C0F340600028F2D12CE0A069012800D1A3
:10110000E4E51648001D0668A069012820D006F411
:101110008001E06981421BD106F03F01206A8142D3
:1011200016D147F6C0703040616AB0EB811F0FD115
:1011300006F440310122A06AC2EB5000B1EB004F2F
:1011400006D106F070612C20005DB1EB006F01D07C
:101150000120BBE50020B9E500004742003802400D
:1011600070B504462546681EB0F1807F01D301208A
:101170000FE0681E4FF0E02148610F214FF0FF3073
:1011800000F0A2FE00204FF0E021886107200861F6
:10119000002070BD704770472DE9F04104460D46B0
:1011A00014B90120BDE8F08194F83D0028B9002071
:1011B00084F83C00204600F053F8022084F83D00FB
:1011C0002068806844F20701884321688860211DF7
:1011D000206800F0EBFB2068D0F808802068866962
:1011E0002068076A286840EA080840F2033086430E
:1011F000A969A86840EA0120064340F60C408643EE
:101200004FF2F0008643E969E86840EA01200643AE
:1012100028690001296A40EA0130064327F02207C5
:1012200027F088076969686840EA01100743206869
:10123000C0F808802068866120680762012084F871
:10124000460084F83E0001213F200155012084F82A
:10125000420043200155012084F83D000020A1E711
:1012600070472DE9F04304460D4694F83E603F2058
:10127000075D94F84280432010F804906DB9012E68
:1012800002D1B8F1010F02D00120BDE8F0830220A5
:1012900084F83E0084F8420025E0042D0CD1012F93
:1012A00002D1B9F1010F01D00120EEE702213F2068
:1012B00001554320015516E0012E07D1012F05D11C
:1012C000B8F1010F02D1B9F1010F01D00120DCE723
:1012D000022084F83E0002213F200155022084F8BC
:1012E00042004320015515B1042D0CD105E0012227
:1012F0000021206800F0C6FB10E0012204212068D4
:1013000000F0C0FB0AE001220021206800F0BAFBD7
:1013100001220421206800F0B5FB00BF00BF206857
:10132000006840F00100216808600020ADE77047C8
:1013300010B5044620680069C0F34000D8B12068A9
:10134000C068C0F34000B0B16FF0020021680861CE
:10135000012020772068806900F0030018B1204642
:10136000FFF7E5FF05E0204600F0ADF8204600F06D
:10137000ABF80020207720680069C0F38000D8B166
:101380002068C068C0F38000B0B16FF0040021682D
:101390000861022020772068806900F4407018B14D
:1013A0002046FFF7C4FF05E0204600F08CF82046F9
:1013B00000F08AF80020207720680069C0F3C000A0
:1013C000D8B12068C068C0F3C000B0B16FF00800A9
:1013D00021680861042020772068C06900F00300BC
:1013E00018B12046FFF7A3FF05E0204600F06BF898
:1013F000204600F069F80020207720680069C0F3DB
:101400000010D8B12068C068C0F30010B0B16FF010
:10141000100021680861082020772068C06900F466
:10142000407018B12046FFF782FF05E0204600F02B
:101430004AF8204600F048F800202077206800692C
:1014400000F0010058B12068C06800F0010030B120
:101450006FF0010021680861204600F037F820682D
:101460000069C0F3C01058B12068C068C0F3C01054
:1014700030B16FF08000216808612046FFF78AFED6
:1014800020680069C0F3801058B12068C068C0F3BC
:10149000801030B16FF0400021680861204600F0F4
:1014A0002DF820680069C0F3401058B12068C0686A
:1014B000C0F3401030B16FF0200021680861204671
:1014C000FFF769FE10BD70477047000009490968C1
:1014D000096801F01001102905D107490968491E62
:1014E000054A116004E004490968491C024A116078
:1014F000704700002C0100201C000020704770473E
:10150000704700002DE9F84F044620680568206800
:10151000C668206847694FF00009CA4605F00F0900
:10152000B9F1000F0AD105F0200038B106F0200013
:1015300020B1204600F0ECFABDE8F88FB9F1000FB9
:1015400072D007F0010018B906F4907000286BD033
:1015500005F0010030B106F4807018B1206C40F045
:101560000100206405F0040030B107F0010018B15B
:10157000206C40F00200206405F0020030B107F05A
:10158000010018B1206C40F00400206405F0080050
:1015900048B106F0200010B907F0010018B1206C26
:1015A00040F008002064206C70B305F0200028B1E2
:1015B00006F0200010B1204600F0AAFA2068406929
:1015C000C0F3801A206C00F0080010B9BAF1000FC7
:1015D00023D0204600F071FA2068406900F04000F6
:1015E000402816D12068406920F0400021684861F9
:1015F000A06B50B15648A16B0865A06BFFF742F88D
:1016000010B1A06B016D88470CE02046FFF778FF12
:1016100008E02046FFF774FF04E02046FFF770FF64
:101620000020206488E7FFE7206B012879D105F0CE
:101630001000002875D006F01000002871D000BFFF
:1016400000200090206800680090206840680090AA
:1016500000BF00BF2068406900F04000402839D139
:10166000A06B006840681FFA80F8B8F1000F30D016
:10167000A08D40452DDDA4F82E80A06BC069B0F58B
:10168000807F1FD02068C06820F480702168C86007
:101690002068406920F001002168486120684069A5
:1016A00020F0400021684861202084F83E0000209E
:1016B00020632068C06820F010002168C860A06B1B
:1016C000FEF78BFFA08DE28D801A81B22046FFF7D6
:1016D00016FF31E7A08DE18D401A1FFA80F8E08DEA
:1016E000E8B1B8F1000F1AD02068C06820F49070FB
:1016F0002168C8602068406920F0010021684861C5
:10170000202084F83E00002020632068C06820F07C
:1017100010002168C86041462046FFF7F0FE0BE745
:10172000FFE705F0800030B106F0800018B12046D8
:1017300000F087FB00E705F0400030B106F0400004
:1017400018B1204600F0D4F9F6E600BFF4E6000038
:10175000A71A000810B504460CB9012010BDA069F5
:1017600000B100E000BF94F83D0028B9002084F8E3
:101770003C00204600F028F8242084F83D00206832
:10178000C06820F400502168C860204600F020FAAC
:101790002068006920F49040216808612068406951
:1017A00020F02A00216848612068C06840F4005099
:1017B0002168C86000202064202084F83D0084F85F
:1017C0003E000020CAE7000010B586B004462D494F
:1017D0002068884254D100BF00BF002000902A48F2
:1017E000006840F01000284908600846006800F0D2
:1017F0001000009000BF00BF00BF00BF00BF00206E
:10180000009021481438006840F002001E49143945
:1018100008600846006800F00200009000BF00BFAA
:1018200000BF00BF00BF002000900846006840F0E5
:10183000020008600846006800F00200009000BF47
:1018400000BF00BF402001900220029001200390C1
:10185000022004900720059001A90C48FEF726FFFE
:10186000802001900720059001A90848FEF71EFF7F
:101870002520FFF784F8032211462520FFF78FF873
:1018800006B010BD00100140443802400004024080
:1018900070B504460D46164694F83E00202816D131
:1018A00005B10EB9012070BD00BF94F83C000128BD
:1018B00001D10220F7E7012084F83C0000BF00209E
:1018C000206332462946204600F098FAEBE70220D2
:1018D000E9E7000010B5044620492068884236D167
:1018E0001F48008800F4004088BB1D48008800F4B1
:1018F000804070B11B4800780A2803D000201849A6
:10190000088024E01648008840F40040144908800C
:101910001DE0144800780D2806D11148008840F4D5
:1019200080400F49088012E00E4800780C49098871
:10193000C1F30D010C4A505409480088401C084965
:10194000088008460088C72801DD002008800122A1
:1019500004490648FFF79CFF10BD0000001001403D
:10196000180000201A00002020000020E8000020BD
:10197000704700BFFEE700BFFEE770477047704743
:1019800010B5FEF7B1FF10BD0348006840F47000C9
:10199000014908607047000088ED00E010B502487A
:1019A000FFF7C6FC10BD00002C01002010B5026836
:1019B000294B98420ED0B0F1804F0BD0274B984264
:1019C00008D0274B984205D0264B984202D0264B90
:1019D000984203D122F070024B681A431E4B984282
:1019E00020D0B0F1804F1DD01C4B98421AD01C4B18
:1019F000984217D01B4B984214D01B4B984211D0E1
:101A00001A4B98420ED01A4B98420BD0194B984261
:101A100008D0194B984205D0184B984202D0184B69
:101A2000984203D122F44072CB681A4322F080031B
:101A30004C6943EA040202608B68C3620B688362EC
:101A4000054B984202D0084B984201D10B690363C1
:101A50000123436110BD000000000140000400406C
:101A600000080040000C004000040140004001401C
:101A7000004401400048014000180040001C0040A4
:101A80000020004030B501F01F05012404FA05F3E1
:101A9000046A9C430462046A01F01F0502FA05F51A
:101AA0002C43046230BD70B50546AC6B0020E08568
:101AB000E0842046FFF724FD70BD0168C96821F469
:101AC00090710268D1600168496921F001010268E2
:101AD0005161016B012905D10168C96821F010012C
:101AE0000268D160202180F83E1000210163704718
:101AF00010B504462068C06820F040002168C86026
:101B0000202084F83D002046FFF732FF002010BD62
:101B100070B5044694F83E00222856D1A068B0F56E
:101B2000805F0CD1206950B90025A66A2068406802
:101B3000C0F308003080A06A801CA06215E0A56A8E
:101B40000026A068B0F5805F03D0A06828B920699E
:101B500018B920684068287004E02068406800F0E8
:101B60007F002870A06A401CA062E08D401E80B2F9
:101B7000E08540BB2068C06820F020002168C86074
:101B80002068C06820F480702168C86020684069BF
:101B900020F0010021684861202084F83E00206B7D
:101BA00001280AD12068C06820F010002168C860B0
:101BB000A18D2046FFF7A3FC02E02046FFF78AFE36
:101BC0000020206370BD0020FCE70220FAE700003F
:101BD0002DE9F84F04462068006920F44050E16880
:101BE0000843216808612169A068084361690843C6
:101BF000E169084300902068C06849F20C6188439D
:101C0000009908432168C8602068406920F440704A
:101C1000A16908432168486176492068884203D059
:101C200075492068884203D1FEF7E4FF814602E04F
:101C3000FEF7D0FF8146E069B0F5004F6CD102207D
:101C40006168A0FB015003461920A9FB0070014602
:101C50002A463846FEF70DFB6421B0FBF1F04FEA4F
:101C6000001A02206168A0FB01510B461920A9FB54
:101C700000712A463846FEF7FCFA83460220616866
:101C8000A0FB015003461920A9FB00712A463846E3
:101C9000FEF7EFFA6421B0FBF1F000EBC00101EBBD
:101CA0000010ABEB8000322101EBC0006421B0FBDF
:101CB000F1F000F0F8000AEB400A02206168A0FB96
:101CC000015003461920A9FB007001462A463846F8
:101CD000FEF7CFFA834602206168A0FB015003465D
:101CE0001920A9FB00712A463846FEF7C2FA642182
:101CF000B0FBF1F000EBC00101EB0010ABEB80009A
:101D0000322101EBC0006421B0FBF1F000F00700CC
:101D10005044216888606AE004206168A0FB01509B
:101D200003461920A9FB007001462A463846FEF7F3
:101D3000A0FA824604206168A0FB015003461920E6
:101D4000A9FB007001462A463846FEF792FA642144
:101D5000B0FBF1F000EBC00101EB0010AAEB80003A
:101D6000322101EB00106421B0FBF1F000F0F00A29
:101D700004206168A0FB017003461920A9FB0051F3
:101D80003A462846FEF775FA6421B0FBF1F00AEBFB
:101D9000001A04206168A0FB01510B461920A9FB21
:101DA00000712A463846FEF764FA834604206168CB
:101DB000A0FB015003461920A9FB007001462A46EA
:101DC0003846FEF756FA6421B0FBF1F000EBC00193
:101DD00001EB0010ABEB8000322101EB001064211D
:101DE000B0FBF1F000F00F00504421688860BDE8BE
:101DF000F88F0000001001400014014010B50346A8
:101E000099629A85DA8500201864222083F83E00C2
:101E100000BF002083F83C0000BF1868C06840F491
:101E200080701C68E0601868406940F001001C6820
:101E300060611868C06840F020001C68E060002005
:101E400010BD014691F83D00212828D18868B0F5E1
:101E5000805F0BD1086948B90A6A1088C0F308008E
:101E60000B685860086A801C086205E00B6A581C01
:101E7000086218780B685860C88C401E80B2C8840D
:101E800058B90868C06820F080000B68D8600868FE
:101E9000C06840F040000B68D86000207047022006
:101EA000FCE7000010B50248FFF72CFB10BD000056
:101EB000E800002000BFFEE702480068C0F30220EF
:101EC000704700000CED00E010B5002804DB0A07A5
:101ED000130E054A135406E00A07140E034A00F0D5
:101EE0000F031B1FD45410BD00E400E018ED00E008
:101EF00000BF7047014908607047000010000020D3
:101F000010B504464FF47A7104FB01F000F002F8BA
:101F100010BD000070B5034600224FF0E026756941
:101F20000D4E366803FB06F44FF0E026B16910E071
:101F30004FF0E026B06988420BD0884202D20E1AD8
:101F4000324402E02E1A0E4432440146A24200D32B
:101F500000E0EDE700BF70BD1000002000BF054AA3
:101F6000126802F04002002AF9D0C2B2014B5A6056
:101F7000704700000010014003480068416A0348B0
:101F8000006801EB004070472C0100201C0000207D
:101F9000F0B58FB004460D465048B0FBF4F0401E3B
:101FA00086B2681E87B200BF00BF002000904C4878
:101FB000006840F004004A4908600846006800F0E4
:101FC0000400009000BF00BF00BF00BF00BF0020A2
:101FD00000900846006840F0040008600846006869
:101FE00000F00400009000BF00BF00BF00BF00BFB2
:101FF000002000903A481030006840F00200384954
:10200000103108600846006800F00200009000BF30
:1020100000BF00BF00BF00BF00200090084600685E
:1020200040F0020008600846006800F002000090DE
:1020300000BF00BF00BF40200A9002200B9000208C
:102040000C9002200D900E900AA92648FEF72EFB58
:1020500002200E9080200A900AA92248FEF726FB53
:1020600021482249086008464660C7600021016196
:102070000320019000200290012003900020049092
:102080000A2005900020069001200790002008906B
:102090000A20099001A91548FFF77EF8002113488E
:1020A000FFF7DFF804211148FFF7DBF800220221D7
:1020B0001D20FEF774FC1D20FEF761FC6FF001008F
:1020C0000A490968086109480068C06840F00100D1
:1020D00006490968C8600FB0F0BD000000BD0105E9
:1020E0003038024000080240000400402C0100206B
:1020F00000B587B000BF00BF002001901F480068F6
:1021000040F010001D4908600846006800F010000B
:10211000019000BF00BF00BF00BF00BF00200190C2
:102120000846006840F0100008600846006800F0AB
:102130001000019000BF00BF00BF0120029003907B
:1021400004900220059002A90D48FEF7AFFA022084
:10215000029002A90A48FEF7A9FA00BF012211461F
:102160000748FEF7AFFB00BF00BF01220221044871
:10217000FEF7A8FB00BF07B000BD000030380240EA
:10218000001002400024FEF7BBFB072302220821B7
:102190004FF4A87000F038F8A820FFF7ABFE4FF41A
:1021A000E13000F097F8FFF7A3FF4FF480310E48BD
:1021B000FFF7EEFE17E0601CC4B20A2094FBF0F1BA
:1021C00000FB114028B900BF01210848FEF770FB51
:1021D00000BFFFF7D1FE0546294605A0FEF7C0F86F
:1021E0000A20FFF78DFEE6E700BD01050010024062
:1021F000B1E0C2EBC6F7B5C4BCC6CAFDD6B5CEAA1F
:10220000A3BA25640D0A00002DE9F04192B0804682
:102210000C4615461E46002700BF002000902A48A5
:10222000006840F08050284908600846006800F0C7
:102230008050009000BF00BF00BF002000902348E6
:10224000006840F48040214908600846006800F4B6
:102250008040009000BF00BF012001900004029068
:102260000220079041050891CDF8288009940B952C
:102270000C9601A8FEF726FD07461FB1012012B0FB
:10228000BDE8F0810F200D9002200E9000200F90ED
:102290004FF4A05010904FF48050119005210DA8DC
:1022A000FEF7D0FB07460FB10120E8E7FEF710FB71
:1022B00041F20101884205D10548006840F4807070
:1022C000034908600020DAE740380240007000400F
:1022D000003C024010B5044609480A490860084617
:1022E000446000218160C160016181610C21416114
:1022F000FFF730FA012204490248FFF7C9FA10BD7E
:1023000000100140E80000201A0000204FF040704B
:10231000E1EE100A7047000000000000000001021A
:10232000030406070809000000000102030400007E
:10233000502300080000002020000000C401000815
:102340007023000820000020B8070000E00100080A
:102350000024F40000000000100000000100000054
:10236000000000000000000000000000000000006D
:040000050800018965
:00000001FF
