:020000040800F2
:10000000F0070020310200082B190008231900080E
:100010002719000809070008591D00080000000002
:100020000000000000000000000000002F19000880
:100030000D070008000000002D1900083119000804
:100040004B0200084B0200084B0200084B0200085C
:100050004B0200084B0200084B0200084B0200084C
:100060004B0200084B0200084B0200084B0200083C
:100070004B0200084B0200084B0200084B0200082C
:100080004B0200084B0200084B0200084B0200081C
:100090004B0200084B0200084B0200084B0200080C
:1000A0004B0200084B0200084B0200084B020008FC
:1000B0004B0200084B0200084B0200084B020008EC
:1000C0004B0200084B0200084B0200084B020008DC
:1000D0004B020008491D00084B0200084B020008B3
:1000E0004B0200084B0200084B0200084B020008BC
:1000F0004B0200084B0200084B0200084B020008AC
:100100004B0200084B0200084B0200084B0200089B
:100110004B0200084B0200084B0200084B0200088B
:100120004B0200084B0200084B0200084B0200087B
:100130004B0200084B0200084B0200084B0200086B
:100140004B0200084B0200084B0200084B0200085B
:100150004B0200084B0200084B0200084B0200084B
:100160004B0200084B0200084B0200084B0200083B
:100170004B0200084B0200084B0200080000000080
:100180004B0200084B02000800F002F800F041F8B2
:100190000AA090E8000C82448344AAF10107DA45E2
:1001A00001D100F036F8AFF2090EBAE80F0013F0F3
:1001B000010F18BFFB1A43F001031847D486000053
:1001C000F4860000103A24BF78C878C1FAD85207E4
:1001D00024BF30C830C144BF04680C6070470000C1
:1001E0000023002400250026103A28BF78C1FBD840
:1001F000520728BF30C148BF0B607047782900F014
:10020000F780002070471FB505F054FB1FBD10B5E7
:1002100010BD00F047FA1146FFF7F5FF05F0C2F8F0
:1002200000F065FA03B4FFF7F2FF03BC01F0B9FD7B
:100230000948804709480047FEE7FEE7FEE7FEE77A
:10024000FEE7FEE7FEE7FEE7FEE7FEE704480549B6
:10025000054A064B7047000039190008890100085B
:10026000F0010020F0070020F0030020F003002040
:10027000704753EA020C00F069802DE9F04B4FF013
:100280000006002B1FBFB3FA83F503FA05F424FA26
:1002900005F65E4012BF1643B2FA82F502FA05F483
:1002A000C5F120051EBF22FA05FC44EA0C042035E6
:1002B00056EA044C4FEA144418BF641C4FF000087F
:1002C0004FF00009904271EB030C39D3002919BF9C
:1002D000B1FA81F701FA07F6B0FA80F700FA07F6EB
:1002E000C7F120071EBF20FA07FC46EA0C0620379C
:1002F000B6FBF4FCA7EB0507103F07F01F0BCBF193
:1003000020060CFA0BFB2CFA06F644BFB346002677
:10031000202FA4BF5E464FF0000B5BEA060C08BF1F
:100320004FF0010B19EB0B09ABFB027C48EB060805
:10033000C01B06FB02CC0BFB03CC71EB0C01C1E72D
:100340000B46024641464846BDE8F08B13B54FF0D8
:1003500000004FF00001AFF30080BDE81C40704783
:100360000FB4044910B503AA029800F085F910BC37
:100370005DF814FB140000200FB41CB5074B06AA4F
:100380007B4469460090059800F05DF900206946BD
:1003900000F06CF91CBC5DF814FB0000E9020000E1
:1003A00070B5044685690068C10601D5302600E0B5
:1003B0002026C00707D070BDD4E901213046904700
:1003C000206A401C20626D1EF6D570BD70B50446D3
:1003D00085690078C00707D170BDD4E901212020CC
:1003E0009047206A401C20626D1EF6D570BD00004B
:1003F00070B504460D4621461068AFF30080218891
:10040000090502D50F4A7A4402E00E4A7A440E32B8
:10041000002104F1240305E000F00F060009965DB9
:100420005E54491C0028F7D120780023000704D52A
:10043000702D02D009B1022311322046BDE8704070
:1004400000F0A2B84C8400002DE9F05F8946044614
:100450004FF0000ADFF824B1FB44C0F820A020468A
:10046000E168884700287DD0252806D0D4E90121FD
:100470009047206A401C2062F1E700255F46204635
:10048000E16888472028064607DB312E05D2B819D7
:1004900010F8200C08B10543F1E7A80701D525F0B5
:1004A0000405C4F81CA00027C4F818A02A2E09D0FF
:1004B000304601F06FFC38B304EB8708303EC8F8D3
:1004C000186019E059F8041B204604EB870291617B
:1004D000E1688847012F064618D1E069002820DA34
:1004E00025F020051DE0D8F8180000EB800006EB91
:1004F00040003038C8F818002046E16888470646B2
:1005000001F048FC0028EED1012F0AD02E2E08D190
:100510002046E16888477F1C0646022F45F02005EB
:10052000C4DBA069002803DA404245F00105A06160
:10053000E80701D025F01005A6B1A6F14100192861
:1005400002D8203645F400654A46314620462560EB
:100550004D46FFF753FE60B1012807D0ED1D25F091
:10056000070000E007E000F1080978E705F1040959
:1005700075E730467AE7206ABDE8F09F22840000E4
:1005800070477047704770472DE9F0470D46994610
:100590009246044600F124080168880604D5E06903
:1005A00021F01001216000E00120A84201DD471B7D
:1005B00000E00027A1697A1902EB0900081AA0617E
:1005C0002078C00602D42046FFF7EAFE002608E0A5
:1005D000D4E901211AF806009047206A401C761CD5
:1005E00020624E45F4DB2078C0060AD52046FFF78E
:1005F000D7FE06E0D4E9012130209047206A401C54
:100600002062381EA7F10107F4DC07E0D4E90121DC
:1006100018F805009047206A401C2062281EA5F1AA
:100620000105F3DC2046FFF7D1FE2078000602D555
:100630000220BDE8F0870120FBE7000001694A1CA9
:1006400002610878704700B58FB0CDE90131002113
:10065000059105497944CDE9031011466846FFF735
:10066000F3FE0FB000BD0000E5FFFFFF0A6802F8CF
:10067000010B0A6070470000074B70B50D467B44C4
:10068000FFF7E1FF0446284600F008F810B14FF0EC
:10069000FF3070BD204670BD8F170000007B00F05A
:1006A00080007047754600F02BF8AE46050069469D
:1006B000534620F00700854618B020B5FFF7C6FD69
:1006C000BDE820404FF000064FF000074FF0000853
:1006D0004FF0000B21F00701AC46ACE8C009ACE8D4
:1006E000C009ACE8C009ACE8C0098D46704710B538
:1006F0000446AFF300802046BDE81040FFF792BDEE
:10070000004870479001002000BFFEE770470000DE
:1007100070B504461D460023B5F5804F13D154F83B
:1007200022300C480340D1E9000640EA06108E68EA
:1007300040EA06208E8940EA06408E693043034332
:1007400044F8223003E06FF0704044F822000020AB
:1007500070BD00000000F0CF10B50346002208680D
:1007600053F8202012480240D1E901042043CC680C
:1007700020430C6920434C6920438C692043CC6999
:1007800020430C6A20434C6A20438C6A2043CC6A85
:100790002043CC6B20430C6B20430243886808281D
:1007A00001D142F04002086843F82020002010BD2B
:1007B0008000F0FF30B503460024501C53F8204061
:1007C00004F04044D1E9000540EA05108D6840EA94
:1007D00005208D8940EA0545088A401E45EA0055F6
:1007E000087D801E45EA00608D6928430443501C43
:1007F00043F82040002030BD70B50446A56D00F0E0
:100800007DF9064694F83500022808D080206065FE
:1008100000BF002084F8340000BF012070BD2068B4
:10082000006820F01600216808602068406920F008
:10083000800021684861206C08B9A06C28B120684C
:10084000006820F00800216808602068006820F037
:100850000100216808600FE000F050F9801B0528B6
:100860000AD92020606500BF002084F8340000BF52
:10087000032084F83500D1E72068006800F001000B
:100880000028E9D194F85C103F208840A86000BFA0
:10089000002084F8340000BF012084F835000020D7
:1008A000BCE7014691F83500022803D08020486556
:1008B00001207047052081F835000868006820F0A5
:1008C00001000A6810600020F3E70000F8B5024656
:1008D0000B460025002400200021DEE0012606FA58
:1008E00001F51E6806EA0504AC4275D11E7906F0D2
:1008F0000306012E04D01E7906F00306022E13D142
:1009000090684F000326BE40B0434F00DE68BE40F3
:1009100030439060506801268E40B0431E79C6F384
:1009200000168E40304350601E7906F00306032EF9
:1009300009D0D0684F000326BE40B0434F009E68E8
:10094000BE403043D0601E7906F00306022E13D15C
:10095000CF0802F1200656F827004E07F70E0F26A3
:10096000BE40B0434F07FF0E1E69BE403043CF0864
:1009700002F1200646F8270010684F000326BE400B
:10098000B0431E7906F003064F00BE4030431060AE
:100990005E6806F08056B6F1805F7DD100BF00260C
:1009A0000096404E366846F480463E4F3E603E46D6
:1009B000366806F48046009600BF00BF3A4E8F08A6
:1009C00056F827008E07370F0F26BE40B043374E2C
:1009D000B24202D1002624E05EE0354EB24201D19F
:1009E00001261EE0334EB24201D1022619E0324EFA
:1009F000B24201D1032614E0304EB24201D10426A6
:100A00000FE02F4EB24201D105260AE02D4EB24230
:100A100001D1062605E02C4EB24201D1072600E0A6
:100A200008268F073F0FBE4030431F4E8F0846F801
:100A30002700264E3068A0435E6806F48036B6F57F
:100A4000803F00D12043214E3060361D3068A043E6
:100A50005E6806F40036B6F5003F00D120431B4E19
:100A6000361D3060361D3068A0435E6806F480167F
:100A7000B6F5801F00D12043144E08363060361D75
:100A80003068A0435E6806F40016B6F5001F00D17A
:100A900020430E4E0C363060491C1029FFF41EAF67
:100AA000F8BD000044380240083801400000024010
:100AB0000004024000080240000C02400010024006
:100AC0000014024000180240001C0240003C01409B
:100AD00010B5426921EA020302EA010443EA044331
:100AE000836110BD0AB1816101E00B04836170472D
:100AF00001480068000C7047002004E001480068CD
:100B0000704700000400002003480068034909788A
:100B10000844014908607047040000200C000020D0
:100B200010B50A48006840F400700849086008469B
:100B3000006840F480600860032000F07FF80F2018
:100B400000F006F800F02AF8002010BD003C02403A
:100B500070B504460E4800784FF47A71B1FBF0F09E
:100B60000C490968B1FBF0F5284600F087FC08B194
:100B7000012070BD102C07D200222146501E00F02B
:100B80001EF80548046001E00120F2E70020F0E7CC
:100B90000C000020000000200800002070470146E3
:100BA0000846002809DB00F01F0301229A40430990
:100BB0009B0003F1E023C3F8002100BF70472DE93B
:100BC000F05F80460D461646002701F0C7F807463D
:100BD00039462A46334601F00700C0F1070ABAF148
:100BE000040F02D94FF0040A01E0C0F1070AD14610
:100BF00000F1040ABAF1070F02D24FF0000A01E037
:100C0000A0F1030AD4464FF0010A0AFA09FAAAF140
:100C1000010A0AEA020A0AFA0CFA4FF0010B0BFA6F
:100C20000CFBABF1010B0BEA030B4AEA0B04214668
:100C3000404601F09BF8BDE8F09F000000BF00F0C7
:100C40000702064B19684FF6FF031940044B0B438C
:100C500043EA0221014B196000BF70470CED00E030
:100C60000000FA0570B504460D460CB9012070BDB0
:100C70005848006800F00700A84209D255490D7095
:100C80000846006800F00700A84201D00120EEE706
:100C9000207800F0020002281DD1207800F0040026
:100CA000042805D14C48006840F4E0504A490860E7
:100CB000207800F00800082805D14748006840F473
:100CC0006040454908604448006820F0F000A16891
:100CD000084341490860207800F00100A8B360682B
:100CE000012807D13C4808380068C0F34040B8B933
:100CF0000120BCE76068022802D06068032807D1A1
:100D0000354808380068C0F3406048B90120AEE7B4
:100D1000314808380068C0F3400008B90120A6E750
:100D20002D48006820F00300616808432A490860E4
:100D3000FFF7E4FE064609E0FFF7E0FE801B41F204
:100D40008831884202D9032091E707E022480068F1
:100D500000F00C006168B0EB810FEDD11D48006818
:100D600000F00700A84209D91A490D70084600682A
:100D700000F00700A84201D0012078E7207800F0B9
:100D80000400042807D11448006820F4E050E1680A
:100D9000084311490860207800F00800082808D1AD
:100DA0000D48006820F46040216940EAC1000A490A
:100DB000086000F03FF808490968C1F30311074AC9
:100DC000515CC8400649086006480068FFF7C0FE4D
:100DD00000204CE7003C024008380240BE580008A2
:100DE0000000002008000020014800687047000053
:100DF0000000002000B5FFF7F7FF04490968C1F3C0
:100E00008221034A515CC84000BD000008380240FE
:100E1000CE58000800B5FFF7E7FF04490968C1F3A1
:100E20004231034A515CC84000BD0000083802400E
:100E3000CE5800082DE9F047002400250026A146E1
:100E40002548006800F00C0020B1042805D00828CF
:100E50003AD105E0DFF8849039E0DFF8849036E09D
:100E60001D48001F006800F03F041B48001F006879
:100E700000F4800078B11A481749091F0968C1F3C6
:100E80008811A0FB01700146224600233846FFF777
:100E9000F0F905460EE011480F49091F0968C1F332
:100EA0008811A0FB01700146224600233846FFF757
:100EB000E0F905460848001F0068C0F30140401CE7
:100EC0004600B5FBF6F902E0DFF8109000BF00BF66
:100ED0004846BDE8F0870000083802400024F400CE
:100EE00000127A00F8B504460CB90120F8BD20784C
:100EF00000F00100002874D0F948006800F00C00F0
:100F000004280DD0F648006800F00C00082813D122
:100F1000F348001F006800F48000B0F5800F0BD18B
:100F2000EF4808380068C0F34040002859D0606896
:100F3000002856D10120D9E700BF6068B0F5803F96
:100F400008D1E7480838006840F48030E44908399F
:100F500008601EE06068B0F5A02F0DD1E0480838A9
:100F6000006840F48020DE490839086008460068BF
:100F700040F4803008600CE0D9480838006820F45C
:100F80008030D749083908600846006820F480207E
:100F9000086000BF606890B1FFF7B0FD054606E04D
:100FA000FFF7ACFD401B642801D903209EE7CC4825
:100FB00008380068C0F340400028F1D011E0FFF786
:100FC0009DFD054606E0FFF799FD401B642801D909
:100FD00003208BE7C24808380068C0F3404000286F
:100FE000F1D1207800F0020002285FD1BC480068EF
:100FF00000F00C0058B1BA48006800F00C00082856
:101000001CD1B748001F006800F48000B0B9B44894
:1010100008380068C0F3400020B1E068012801D022
:10102000012063E7AE480838006820F0F800216925
:1010300040EAC100AA490839086037E0E06800B317
:101040000120A8490860FFF759FD054606E0FFF7B3
:1010500055FD401B022801D9032047E7A048083866
:101060000068C0F340000028F1D09D4808380068AF
:1010700020F0F800216940EAC10099490839086068
:1010800014E0002097490860FFF738FD054606E0A8
:10109000FFF734FD401B022801D9032026E79048C2
:1010A00008380068C0F340000028F1D1207800F033
:1010B000080008282CD16069A8B101208A4908607D
:1010C000FFF71CFD054606E0FFF718FD401B022850
:1010D00001D903200AE782486C300068C0F3400061
:1010E0000028F1D014E000207F490860FFF706FDDA
:1010F000054606E0FFF702FD401B022801D9032048
:10110000F4E677486C300068C0F340000028F1D165
:10111000207800F00400042870D10027704838308F
:10112000006800F0805090B900BF002000906C482B
:101130003830006840F0805069493831086008460E
:10114000006800F08050009000BF00BF0127674892
:10115000006800F48070B0B96448006840F48070A2
:1011600062490860FFF7CAFC054606E0FFF7C6FCC7
:10117000401B022801D90320B8E65C48006800F44F
:1011800080700028F2D000BFA068012808D1544820
:101190006830006840F001005149683108601DE086
:1011A000A06805280DD14E486830006840F0040062
:1011B0004B49683108600846006840F0010008604B
:1011C0000CE047486830006820F00100444968316D
:1011D00008600846006820F00400086000BFA068AE
:1011E000A8B1FFF78BFC054609E0FFF787FC401B21
:1011F00041F28831884202D9032077E626E0384858
:1012000068300068C0F340000028EED013E0FFF71C
:1012100075FC054608E0FFF771FC401B41F2883180
:10122000884201D9032061E62D4868300068C0F388
:1012300040000028EFD1012F07D12948383000683D
:1012400020F0805026493831086000BFA06900288E
:1012500045D02348006800F00C0008285DD0A06944
:10126000022845D100201F490866FFF747FC0546C4
:1012700006E0FFF743FC401B022801D9032035E6B6
:10128000174808380068C0F340600028F1D1D4E95D
:1012900007010843616A40EA81110122A06AC2EB9A
:1012A000500041EA00412C20005D41EA00600C49F9
:1012B000091F086001200B490866FFF71FFC05465F
:1012C00006E0FFF71BFC401B022801D903200DE6B6
:1012D000034808380068C0F340600028F1D049E0B6
:1012E0000838024000004742800E4742007000402C
:1012F000002021490866FFF701FC054606E0FFF7DC
:10130000FDFB401B022801D90320EFE51B480068C4
:10131000C0F340600028F2D12CE0A069012800D180
:10132000E4E51648001D0668A069012820D006F4EF
:101330008001E06981421BD106F03F01206A8142B1
:1013400016D147F6C0703040616AB0EB811F0FD1F3
:1013500006F440310122A06AC2EB5000B1EB004F0D
:1013600006D106F070612C20005DB1EB006F01D05A
:101370000120BBE50020B9E50000474200380240EB
:1013800070B504460E4615460CB9012070BD94F8A0
:10139000490028B9002084F84800204600F01CF8D5
:1013A00004F108012068FFF7D7F93146A2682068E8
:1013B000FFF700FA2946236BD4E90102FFF7A8F9E9
:1013C000A168206850F8210040F00100A26821685F
:1013D00041F822000020D9E710B586B0044600BFCE
:1013E000002000902248006840F001002049086079
:1013F0000846006800F00100009000BF00BF00BF79
:10140000002000901A480838006840F00800184989
:10141000083908600846006800F00800009000BF26
:1014200000BF00BF002000900846006840F0100098
:1014300008600846006800F01000009000BF00BF80
:101440004CF20370019002200290012003900220D0
:1014500004900C20059001A90648FFF737FA4FF6D3
:101460008070019001A90448FFF730FA06B010BD62
:1014700038380240000C02400010024070B50446AB
:101480002546681EB0F1807F01D301200FE0681E61
:101490004FF0E02148610F214FF0FF3000F066FC73
:1014A00000204FF0E021886107200861002070BD16
:1014B000704770472DE9F84F04462068056820689A
:1014C000C668206847694FF00009CA4605F00F0951
:1014D000B9F1000F0AD105F0200038B106F0200064
:1014E00020B1204600F067FABDE8F88FB9F1000F8F
:1014F00072D007F0010018B906F4907000286BD084
:1015000005F0010030B106F4807018B1206C40F095
:101510000100206405F0040030B107F0010018B1AB
:10152000206C40F00200206405F0020030B107F0AA
:10153000010018B1206C40F00400206405F00800A0
:1015400048B106F0200010B907F0010018B1206C76
:1015500040F008002064206C70B305F0200028B132
:1015600006F0200010B1204600F025FA20684069FE
:10157000C0F3801A206C00F0080010B9BAF1000F17
:1015800023D0204600F0ECF92068406900F04000CC
:10159000402816D12068406920F040002168486149
:1015A000A06B50B15648A16B0865A06BFFF779F9A5
:1015B00010B1A06B016D88470CE02046FFF779FF62
:1015C00008E02046FFF775FF04E02046FFF771FFB3
:1015D0000020206488E7FFE7206B012879D105F01F
:1015E0001000002875D006F01000002871D000BF50
:1015F00000200090206800680090206840680090FB
:1016000000BF00BF2068406900F04000402839D189
:10161000A06B006840681FFA80F8B8F1000F30D066
:10162000A08D40452DDDA4F82E80A06BC069B0F5DB
:10163000807F1FD02068C06820F480702168C86057
:101640002068406920F001002168486120684069F5
:1016500020F0400021684861202084F83E000020EE
:1016600020632068C06820F010002168C860A06B6B
:10167000FFF7C2F8A08DE28D801A81B22046FFF7F5
:1016800017FF31E7A08DE18D401A1FFA80F8E08D39
:10169000E8B1B8F1000F1AD02068C06820F490704B
:1016A0002168C8602068406920F001002168486115
:1016B000202084F83E00002020632068C06820F0CD
:1016C00010002168C86041462046FFF7F1FE0BE795
:1016D000FFE705F0800030B106F0800018B1204629
:1016E00000F001FB00E705F0400030B106F04000DB
:1016F00018B1204600F04FF9F6E600BFF4E600000E
:101700004D19000810B504460CB9012010BDA069A0
:1017100000B100E000BF94F83D0028B9002084F833
:101720003C00204600F028F8242084F83D00206882
:10173000C06820F400502168C860204600F09AF983
:101740002068006920F490402168086120684069A1
:1017500020F02A00216848612068C06840F40050E9
:101760002168C86000202064202084F83D0084F8AF
:101770003E000020CAE7000010B586B004462D499F
:101780002068884254D100BF00BF002000902A4842
:10179000006840F01000284908600846006800F022
:1017A0001000009000BF00BF00BF00BF00BF0020BE
:1017B000009021481438006840F002001E49143996
:1017C00008600846006800F00200009000BF00BFFB
:1017D00000BF00BF00BF002000900846006840F036
:1017E000020008600846006800F00200009000BF98
:1017F00000BF00BF40200190022002900120039012
:10180000022004900720059001A90C48FFF75EF81C
:10181000802001900720059001A90848FFF756F89D
:101820002520FFF7BCF9032211462520FFF7C7F951
:1018300006B010BD001001404438024000040240D0
:1018400070B504460D46164694F83E00202816D181
:1018500005B10EB9012070BD00BF94F83C0001280D
:1018600001D10220F7E7012084F83C0000BF0020EE
:10187000206332462946204600F012FAEBE70220A8
:10188000E9E7000010B5044620492068884236D1B7
:101890001F48008800F4004088BB1D48008800F401
:1018A000804070B11B4800780A2803D000201849F6
:1018B000088024E01648008840F40040144908805D
:1018C0001DE0144800780D2806D11148008840F426
:1018D00080400F49088012E00E4800780C490988C2
:1018E000C1F30D010C4A505409480088401C0849B6
:1018F000088008460088C72801DD002008800122F2
:1019000004490648FFF79CFF10BD0000001001408D
:10191000180000201A00002024000020EC00002005
:10192000704700BFFEE700BFFEE770477047704793
:1019300010B5FFF7E9F810BD0348006840F47000E7
:10194000014908607047000088ED00E070B5054669
:10195000AC6B0020E085E0842046FFF7AAFD70BD57
:101960000168C96821F490710268D1600168496911
:1019700021F0010102685161016B012905D1016863
:10198000C96821F010010268D160202180F83E1062
:1019900000210163704710B504462068C06820F03C
:1019A00040002168C860202084F83D002046FFF7F1
:1019B000B7FF002010BD70B5044694F83E00222801
:1019C00056D1A068B0F5805F0CD1206950B90025D0
:1019D000A66A20684068C0F308003080A06A801CB6
:1019E000A06215E0A56A0026A068B0F5805F03D06C
:1019F000A06828B9206918B920684068287004E0F8
:101A00002068406800F07F002870A06A401CA06237
:101A1000E08D401E80B2E08540BB2068C06820F0A9
:101A200020002168C8602068C06820F480702168A8
:101A3000C8602068406920F00100216848612020CA
:101A400084F83E00206B01280AD12068C06820F08D
:101A500010002168C860A18D2046FFF729FD02E033
:101A60002046FFF70FFF0020206370BD0020FCE739
:101A70000220FAE72DE9F84F04462068006920F4B7
:101A80004050E1680843216808612169A068084363
:101A900061690843E169084300902068C06849F221
:101AA0000C618843009908432168C8602068406938
:101AB00020F44070A1690843216848617649206894
:101AC000884203D075492068884203D1FFF7A2F904
:101AD000814602E0FFF78EF98146E069B0F5004FDC
:101AE0006CD102206168A0FB015003461920A9FBBC
:101AF000007001462A463846FEF7BBFB6421B0FB66
:101B0000F1F04FEA001A02206168A0FB01510B4678
:101B10001920A9FB00712A463846FEF7AAFB834626
:101B200002206168A0FB015003461920A9FB007147
:101B30002A463846FEF79DFB6421B0FBF1F000EB2E
:101B4000C00101EB0010ABEB8000322101EBC000C3
:101B50006421B0FBF1F000F0F8000AEB400A02202B
:101B60006168A0FB015003461920A9FB00700146E3
:101B70002A463846FEF77DFB834602206168A0FBBB
:101B8000015003461920A9FB00712A463846FEF78A
:101B900070FB6421B0FBF1F000EBC00101EB001021
:101BA000ABEB8000322101EBC0006421B0FBF1F00F
:101BB00000F007005044216888606AE004206168F2
:101BC000A0FB015003461920A9FB007001462A46DC
:101BD0003846FEF74EFB824604206168A0FB0150A8
:101BE00003461920A9FB007001462A463846FEF735
:101BF00040FB6421B0FBF1F000EBC00101EB0010F1
:101C0000AAEB8000322101EB00106421B0FBF1F05F
:101C100000F0F00A04206168A0FB0170034619205F
:101C2000A9FB00513A462846FEF723FB6421B0FB8E
:101C3000F1F00AEB001A04206168A0FB01510B4689
:101C40001920A9FB00712A463846FEF712FB83468D
:101C500004206168A0FB015003461920A9FB007015
:101C600001462A463846FEF704FB6421B0FBF1F03A
:101C700000EBC00101EB0010ABEB8000322101EB67
:101C800000106421B0FBF1F000F00F005044216817
:101C90008860BDE8F88F000000100140001401408A
:101CA00010B5034699629A85DA85002018642220CF
:101CB00083F83E0000BF002083F83C0000BF186896
:101CC000C06840F480701C68E0601868406940F0AB
:101CD00001001C6860611868C06840F020001C6842
:101CE000E060002010BD014691F83D00212828D178
:101CF0008868B0F5805F0BD1086948B90A6A108816
:101D0000C0F308000B685860086A801C086205E090
:101D10000B6A581C086218780B685860C88C401E03
:101D200080B2C88458B90868C06820F080000B6889
:101D3000D8600868C06840F040000B68D860002098
:101D400070470220FCE7000010B50248FFF7B2FB25
:101D500010BD0000EC00002000BFFEE70248006854
:101D6000C0F30220704700000CED00E010B5002821
:101D700004DB0A07130E054A135406E00A07140E83
:101D8000034A00F00F031B1FD45410BD00E400E011
:101D900018ED00E030380A2801D2012070470020F9
:101DA000704700BF7047000001490860704700009D
:101DB0001000002010B504464FF47A7104FB01F0C6
:101DC00000F002F810BD000070B5034600224FF08D
:101DD000E02675690D4E366803FB06F44FF0E026E9
:101DE000B16910E04FF0E026B06988420BD088421C
:101DF00002D20E1A324402E02E1A0E443244014638
:101E0000A24200D300E0EDE700BF70BD100000204B
:101E100000BF054A126802F04002002AF9D0C2B29F
:101E2000014B5A60704700000010014070B5044635
:101E3000002609480588408845430021084603F0EC
:101E4000A7F803F053FA00BF02E004480480761CB0
:101E5000AE42FAD370BD0000800100200008006C83
:101E600010B5044658488471002C58D1F0205649CA
:101E700008804FF4A07048800846808845F21051D1
:101E8000884210D14FF430504F4908814FF4285008
:101E900048814FF42C5088814FF4F07008804FF443
:101EA000487048801AE04848808841F663118842AB
:101EB0000DD12C20444908812B2048812A2088817B
:101EC0004FF4F07008804FF44870488006E02C20F2
:101ED0003D4908812A2048812B2088813A48808802
:101EE00045F21031884205D03748808847F2967114
:101EF000884206D14FF4A070334908804FF4F07047
:101F000048803148808849F60601884258D14FF40C
:101F1000F0702D4908804FF44870488050E04FF42D
:101F2000A07029490880F02048800846808845F242
:101F30001051884210D14FF43050234908814FF49A
:101F4000285048814FF42C5088814FF44870088005
:101F50004FF4F070488020E01B48808841F6631100
:101F6000884205D01848808849F6060188420DD17C
:101F70002C20154908812A2048812B2088814FF484
:101F8000487008804FF4F070488006E02C200E491D
:101F900008812A2048812B2088810B48808845F2BF
:101FA0001031884205D00848808847F296718842EF
:101FB00006D14FF4F070044908804FF4A0704880B7
:101FC000002002F0C7FE10BD8001002070B505465C
:101FD0000E4614463146284602F0DAFF03F086F931
:101FE00001490C8070BD00000008006C10B5CF20C6
:101FF00003F070F9002003F061F9C12003F05EF9ED
:10200000302003F05BF9ED2003F064F9642003F065
:1020100055F9032003F052F9122003F04FF9812003
:1020200003F04CF9E82003F055F9852003F046F958
:10203000102003F043F97A2003F040F9CB2003F09D
:1020400049F9392003F03AF92C2003F037F9002040
:1020500003F034F9342003F031F9022003F02EF9B3
:10206000F72003F037F9202003F028F9EA2003F0E5
:1020700031F9002003F022F9002003F01FF9C020FD
:1020800003F028F91B2003F019F9C12003F022F90D
:10209000012003F013F9C52003F01CF9302003F0F0
:1020A0000DF9302003F00AF9C72003F013F9B72027
:1020B00003F004F9362003F00DF9482003F0FEF890
:1020C0003A2003F007F9552003F0F8F8B12003F0A7
:1020D00001F9002003F0F2F81A2003F0EFF8B6201F
:1020E00003F0F8F80A2003F0E9F8A22003F0E6F87C
:1020F000F22003F0EFF8002003F0E0F8262003F0D0
:10210000E9F8012003F0DAF8E02003F0E3F80F200B
:1021100003F0D4F82A2003F0D1F8282003F0CEF8F9
:10212000082003F0CBF80E2003F0C8F8082003F0D5
:10213000C5F8542003F0C2F8A92003F0BFF84320EB
:1021400003F0BCF80A2003F0B9F80F2003F0B6F84A
:10215000002003F0B3F8002003F0B0F8002003F0F3
:10216000ADF8002003F0AAF8E12003F0B3F8002056
:1021700003F0A4F8152003F0A1F8172003F09EF84F
:10218000072003F09BF8112003F098F8062003F0D5
:1021900095F82B2003F092F8562003F08FF83C209E
:1021A00003F08CF8052003F089F8102003F086F87E
:1021B0000F2003F083F83F2003F080F83F2003F066
:1021C0007DF80F2003F07AF82B2003F083F800202D
:1021D00003F074F8002003F071F8012003F06EF8AA
:1021E0003F2003F06BF82A2003F074F8002003F07E
:1021F00065F8002003F062F8002003F05FF8EF209C
:1022000003F05CF8112003F065F87820FFF7D2FDA9
:10221000292003F05FF810BD10B5FF2003F05AF835
:10222000FF2003F04BF8982003F048F8062003F055
:1022300045F8BC2003F04EF8012003F03FF80F20D2
:1022400003F03CF8612003F039F8FF2003F036F882
:10225000012003F033F8012003F030F80B2003F0E5
:102260002DF8102003F02AF8372003F027F8632018
:1022700003F024F8FF2003F021F8FF2003F01EF8FC
:10228000012003F01BF8012003F018F8002003F0F0
:1022900015F8002003F012F8FF2003F00FF8522089
:1022A00003F00CF8012003F009F8002003F006F811
:1022B000402003F003F8BD2003F00CF8012002F0E9
:1022C000FDFF232002F0FAFF452002F0F7FF672010
:1022D00002F0F4FF012002F0F1FF232002F0EEFFF4
:1022E000452002F0EBFF672002F0E8FFBE2002F07D
:1022F000F1FF002002F0E2FF012002F0DFFFAB203F
:1023000002F0DCFF602002F0D9FF222002F0D6FFAD
:10231000222002F0D3FF222002F0D0FF222002F080
:10232000CDFF222002F0CAFFC72002F0D3FF3620E3
:1023300002F0C4FFED2002F0CDFF7F2002F0BEFFCF
:102340000F2002F0BBFFC02002F0C4FF0F2002F0FC
:10235000B5FF0B2002F0B2FF0A2002F0AFFFFC2015
:1023600002F0B8FF082002F0A9FFDF2002F0B2FF60
:10237000002002F0A3FF002002F0A0FF002002F0E6
:102380009DFF002002F09AFF002002F097FF20201E
:1023900002F094FFF32002F09DFF742002F08EFF04
:1023A000B42002F097FF002002F088FF002002F026
:1023B00085FF002002F082FFF72002F08BFF8220D1
:1023C00002F07CFFB12002F085FF002002F076FFD2
:1023D000132002F073FF132002F070FFF22002F0CE
:1023E00079FF802002F06AFF042002F067FF40209E
:1023F00002F064FF282002F061FFC12002F06AFFB2
:10240000172002F05BFF882002F058FF882002F0BE
:1024100055FF202002F052FFE02002F05BFF002079
:1024200002F04CFF0A2002F049FF122002F046FFA2
:10243000102002F043FF0E2002F040FF202002F0A7
:102440003DFFCC2002F03AFF072002F037FF0620C4
:1024500002F034FF0B2002F031FF0E2002F02EFFBD
:102460000F2002F02BFF0D2002F028FF152002F0B4
:1024700025FF102002F022FF002002F01FFFE120C4
:1024800002F028FF002002F019FF0B2002F016FFD7
:10249000132002F013FF0D2002F010FF0E2002F0B7
:1024A0000DFF1B2002F00AFF712002F007FF06203B
:1024B00002F004FF062002F001FF0A2002F0FEFEF7
:1024C0000F2002F0FBFE0E2002F0F8FE0F2002F0BB
:1024D000F5FE152002F0F2FE0C2002F0EFFE0020C7
:1024E00002F0ECFE2A2002F0F5FE002002F0E6FEEB
:1024F000002002F0E3FE012002F0E0FEDF2002F007
:10250000DDFE2B2002F0E6FE002002F0D7FE0020C8
:1025100002F0D4FE032002F0D1FE1F2002F0CEFE16
:102520003A2002F0D7FE552002F0C8FE362002F015
:10253000D1FE002002F0C2FE112002F0CBFE782076
:10254000FFF738FC292002F0C5FE1420FFF732FC0B
:102550002C2002F0BFFE10BD10B5ED2002F0BAFE37
:10256000012002F0ABFEFE2002F0A8FEEE2002F0F9
:10257000B1FEDE2002F0A2FE212002F09FFEF1203B
:1025800002F0A8FE012002F099FEDF2002F0A2FE78
:10259000102002F093FEC42002F09CFE8F2002F077
:1025A0008DFEC62002F096FE002002F087FEE2209B
:1025B00002F084FEE22002F081FEE22002F07EFEC4
:1025C000BF2002F087FEAA2002F078FEB02002F0C1
:1025D00081FE0D2002F072FE002002F06FFE0D2041
:1025E00002F06CFE002002F069FE112002F066FE8F
:1025F000002002F063FE192002F060FE002002F0CD
:102600005DFE212002F05AFE002002F057FE2D2030
:1026100002F054FE002002F051FE3D2002F04EFE7A
:10262000002002F04BFE5D2002F048FE002002F088
:1026300045FE5D2002F042FE002002F03FFEB12088
:1026400002F048FE802002F039FE002002F036FE43
:102650008B2002F033FE002002F030FE962002F0C4
:102660002DFE002002F02AFEB22002F033FE0020F0
:1026700002F024FE002002F021FE022002F01EFEE5
:10268000002002F01BFE032002F018FE002002F0E2
:1026900015FEB32002F01EFE002002F00FFE002007
:1026A00002F00CFE002002F009FE002002F006FEFF
:1026B000002002F003FE002002F000FE002002F0E5
:1026C000FDFD002002F0FAFD002002F0F7FD0020E1
:1026D00002F0F4FD002002F0F1FD002002F0EEFD1A
:1026E000002002F0EBFD002002F0E8FD002002F0E7
:1026F000E5FD002002F0E2FD002002F0DFFD0020F9
:1027000002F0DCFD002002F0D9FD002002F0D6FD31
:10271000002002F0D3FD002002F0D0FD002002F0E6
:10272000CDFD002002F0CAFDB42002F0D3FD8B20C5
:1027300002F0C4FD002002F0C1FD962002F0BEFDB3
:10274000002002F0BBFDA12002F0B8FD002002F045
:10275000B5FDB52002F0BEFD022002F0AFFD002065
:1027600002F0ACFD032002F0A9FD002002F0A6FD5E
:10277000042002F0A3FD002002F0A0FDB62002F02C
:10278000A9FD002002F09AFD002002F097FDB7207D
:1027900002F0A0FD002002F091FD002002F08EFD6D
:1027A0003F2002F08BFD002002F088FD5E2002F049
:1027B00085FD002002F082FD642002F07FFD0020F4
:1027C00002F07CFD8C2002F079FD002002F076FD05
:1027D000AC2002F073FD002002F070FDDC2002F05E
:1027E0006DFD002002F06AFD702002F067FD002000
:1027F00002F064FD902002F061FD002002F05EFD19
:10280000EB2002F05BFD002002F058FDDC2002F01E
:1028100055FD002002F052FDB82002F05BFD0020C3
:1028200002F04CFD002002F049FD002002F046FDC0
:10283000002002F043FD002002F040FD002002F0E5
:102840003DFD002002F03AFD002002F037FDBA20E5
:1028500002F040FD242002F031FD002002F02EFDA8
:10286000002002F02BFD002002F028FDC12002F024
:1028700031FD202002F022FD002002F01FFD542037
:1028800002F01CFD002002F019FDFF2002F016FDF1
:10289000002002F013FDC22002F01CFD0A2002F00D
:1028A0000DFD002002F00AFD042002F007FD0020CB
:1028B00002F004FDC32002F00DFD3C2002F0FEFCFE
:1028C000002002F0FBFC3A2002F0F8FC002002F0AD
:1028D000F5FC392002F0F2FC002002F0EFFC37207A
:1028E00002F0ECFC002002F0E9FC3C2002F0E6FCE7
:1028F000002002F0E3FC362002F0E0FC002002F0B1
:10290000DDFC322002F0DAFC002002F0D7FC2F20A0
:1029100002F0D4FC002002F0D1FC2C2002F0CEFC0E
:10292000002002F0CBFC292002F0C8FC002002F0BD
:10293000C5FC262002F0C2FC002002F0BFFC2420CF
:1029400002F0BCFC002002F0B9FC242002F0B6FC2E
:10295000002002F0B3FC232002F0B0FC002002F0C3
:10296000ADFC3C2002F0AAFC002002F0A7FC3620BF
:1029700002F0A4FC002002F0A1FC322002F09EFC38
:10298000002002F09BFC2F2002F098FC002002F0B7
:1029900095FC2C2002F092FC002002F08FFC2920F4
:1029A00002F08CFC002002F089FC262002F086FC5C
:1029B000002002F083FC242002F080FC002002F0C2
:1029C0007DFC242002F07AFC002002F077FC23201A
:1029D00002F074FC002002F071FCC42002F07AFCCA
:1029E000622002F06BFC002002F068FC052002F07F
:1029F00065FC002002F062FC842002F05FFC0020F5
:102A000002F05CFCF02002F059FC002002F056FCC1
:102A1000182002F053FC002002F050FCA42002F029
:102A20004DFC002002F04AFC182002F047FC002078
:102A300002F044FC502002F041FC002002F03EFC79
:102A40000C2002F03BFC002002F038FC172002F0C2
:102A500035FC002002F032FC952002F02FFC002013
:102A600002F02CFCF32002F029FC002002F026FCEE
:102A7000E62002F023FC002002F020FCC52002F03A
:102A800029FC322002F01AFC002002F017FC44203E
:102A900002F014FC002002F011FC652002F00EFC94
:102AA000002002F00BFC762002F008FC002002F06F
:102AB00005FC882002F002FC002002F0FFFBC6208B
:102AC00002F008FC202002F0F9FB002002F0F6FBE7
:102AD000172002F0F3FB002002F0F0FB012002F0CF
:102AE000EDFB002002F0EAFBC72002F0F3FB002020
:102AF00002F0E4FB002002F0E1FB002002F0DEFB2C
:102B0000002002F0DBFBC82002F0E4FB002002F012
:102B1000D5FB002002F0D2FB002002F0CFFB00200A
:102B200002F0CCFBC92002F0D5FB002002F0C6FB6E
:102B3000002002F0C3FB002002F0C0FB002002F0E6
:102B4000BDFB002002F0BAFB002002F0B7FB002022
:102B500002F0B4FB002002F0B1FB002002F0AEFB5B
:102B6000002002F0ABFB002002F0A8FB002002F0E6
:102B7000A5FB002002F0A2FB002002F09FFB00203A
:102B800002F09CFB002002F099FBE02002F0A2FB87
:102B9000162002F093FB002002F090FB1C2002F0B4
:102BA0008DFB002002F08AFB212002F087FB002031
:102BB00002F084FB362002F081FB002002F07EFB55
:102BC000462002F07BFB002002F078FB522002F04E
:102BD00075FB002002F072FB642002F06FFB002006
:102BE00002F06CFB7A2002F069FB002002F066FB29
:102BF0008B2002F063FB002002F060FB992002F0C2
:102C00005DFB002002F05AFBA82002F057FB0020D9
:102C100002F054FBB92002F051FB002002F04EFB01
:102C2000C42002F04BFB002002F048FBCA2002F057
:102C300045FB002002F042FBD22002F03FFB0020C7
:102C400002F03CFBD92002F039FB002002F036FBF9
:102C5000E02002F033FB002002F030FBF32002F012
:102C60002DFB002002F02AFBE12002F033FB1620AE
:102C700002F024FB002002F021FB1C2002F01EFBCE
:102C8000002002F01BFB222002F018FB002002F0C3
:102C900015FB362002F012FB002002F00FFB45204E
:102CA00002F00CFB002002F009FB522002F006FBB0
:102CB000002002F003FB642002F000FB002002F081
:102CC000FDFA7A2002F0FAFA002002F0F7FA8B20DF
:102CD00002F0F4FA002002F0F1FA992002F0EEFA84
:102CE000002002F0EBFAA82002F0E8FA002002F03F
:102CF000E5FAB92002F0E2FA002002F0DFFAC4207F
:102D000002F0DCFA002002F0D9FACA2002F0D6FA6A
:102D1000002002F0D3FAD22002F0D0FA002002F014
:102D2000CDFAD82002F0CAFA002002F0C7FAE0205B
:102D300002F0C4FA002002F0C1FAF32002F0BEFA59
:102D4000002002F0BBFAE22002F0C4FA052002F0F3
:102D5000B5FA002002F0B2FA0B2002F0AFFA002020
:102D600002F0ACFA1B2002F0A9FA002002F0A6FA49
:102D7000342002F0A3FA002002F0A0FA442002F06E
:102D80009DFA002002F09AFA4F2002F097FA0020F4
:102D900002F094FA612002F091FA002002F08EFA1B
:102DA000792002F08BFA002002F088FA882002F0E5
:102DB00085FA002002F082FA972002F07FFA0020C4
:102DC00002F07CFAA62002F079FA002002F076FAEE
:102DD000B72002F073FA002002F070FAC22002F06D
:102DE0006DFA002002F06AFAC72002F067FA0020AC
:102DF00002F064FAD12002F061FA002002F05EFADB
:102E0000D62002F05BFA002002F058FADD2002F032
:102E100055FA002002F052FAF32002F04FFA002097
:102E200002F04CFAE32002F055FA052002F046FACF
:102E3000002002F043FA0A2002F040FA002002F0DB
:102E40003DFA1C2002F03AFA002002F037FA332053
:102E500002F034FA002002F031FA442002F02EFA97
:102E6000002002F02BFA502002F028FA002002F095
:102E700025FA622002F022FA002002F01FFA7820E0
:102E800002F01CFA002002F019FA882002F016FA6B
:102E9000002002F013FA972002F010FA002002F04E
:102EA0000DFAA62002F00AFA002002F007FAB72075
:102EB00002F004FA002002F001FAC22002F0FEF94A
:102EC000002002F0FBF9C72002F0F8F9002002F020
:102ED000F5F9D12002F0F2F9002002F0EFF9D52047
:102EE00002F0ECF9002002F0E9F9DD2002F0E6F949
:102EF000002002F0E3F9F32002F0E0F9002002F0F4
:102F0000DDF9E42002F0E6F9012002F0D7F9002013
:102F100002F0D4F9012002F0D1F9002002F0CEF93C
:102F2000022002F0CBF9002002F0C8F92A2002F0BA
:102F3000C5F9002002F0C2F93C2002F0BFF90020E0
:102F400002F0BCF94B2002F0B9F9002002F0B6F90A
:102F50005D2002F0B3F9002002F0B0F9742002F015
:102F6000ADF9002002F0AAF9842002F0A7F90020B0
:102F700002F0A4F9932002F0A1F9002002F09EF9DA
:102F8000A22002F09BF9002002F098F9B32002F091
:102F900095F9002002F092F9BE2002F08FF900208E
:102FA00002F08CF9C42002F089F9002002F086F9C1
:102FB000CD2002F083F9002002F080F9D32002F046
:102FC0007DF9002002F07AF9DD2002F077F9002087
:102FD00002F074F9F32002F071F9002002F06EF9AA
:102FE000E52002F077F9002002F068F9002002F0F5
:102FF00065F9002002F062F9002002F05FF902207A
:1030000002F05CF9002002F059F9292002F056F98B
:10301000002002F053F93C2002F050F9002002F0A9
:103020004DF94B2002F04AF9002002F047F95D20EB
:1030300002F044F9002002F041F9742002F03EF958
:10304000002002F03BF9842002F038F9002002F061
:1030500035F9932002F032F9002002F02FF9A22076
:1030600002F02CF9002002F029F9B32002F026F931
:10307000002002F023F9BE2002F020F9002002F027
:103080001DF9C42002F01AF9002002F017F9CD2032
:1030900002F014F9002002F011F9D32002F00EF929
:1030A000002002F00BF9DC2002F008F9002002F009
:1030B00005F9F32002F002F9002002F0FFF8E62003
:1030C00002F008F9112002F0F9F8002002F0F6F8F9
:1030D000342002F0F3F8002002F0F0F8562002F05D
:1030E000EDF8002002F0EAF8762002F0E7F8002080
:1030F00002F0E4F8772002F0E1F8002002F0DEF8B8
:10310000662002F0DBF8002002F0D8F8882002F0F8
:10311000D5F8002002F0D2F8992002F0CFF8002074
:1031200002F0CCF8BB2002F0C9F8002002F0C6F88B
:10313000992002F0C3F8002002F0C0F8662002F0E7
:10314000BDF8002002F0BAF8552002F0B7F80020D0
:1031500002F0B4F8552002F0B1F8002002F0AEF809
:10316000452002F0ABF8002002F0A8F8432002F05E
:10317000A5F8002002F0A2F8442002F09FF80020F9
:1031800002F09CF8E72002F0A5F8322002F096F851
:10319000002002F093F8552002F090F8002002F091
:1031A0008DF8762002F08AF8002002F087F8662079
:1031B00002F084F8002002F081F8672002F07EF827
:1031C000002002F07BF8672002F078F8002002F07F
:1031D00075F8872002F072F8002002F06FF899204D
:1031E00002F06CF8002002F069F8BB2002F066F8EB
:1031F000002002F063F8992002F060F8002002F04D
:103200005DF8772002F05AF8002002F057F84420C9
:1032100002F054F8002002F051F8562002F04EF867
:10322000002002F04BF8232002F048F8002002F0C2
:1032300045F8332002F042F8002002F03FF8452024
:1032400002F03CF8002002F039F8E82002F042F8E1
:10325000002002F033F8002002F030F8992002F04C
:103260002DF8002002F02AF8872002F027F800202D
:1032700002F024F8882002F021F8002002F01EF865
:10328000772002F01BF8002002F018F8662002F008
:1032900015F8002002F012F8882002F00FF8002044
:1032A00002F00CF8AA2002F009F8002002F006F85B
:1032B000BB2002F003F8002002F000F8992001F092
:1032C000FDFF002001F0FAFF662001F0F7FF00206B
:1032D00001F0F4FF552001F0F1FF002001F0EEFFB6
:1032E000552001F0EBFF002001F0E8FF442001F041
:1032F000E5FF002001F0E2FF442001F0DFFF0020A5
:1033000001F0DCFF552001F0D9FF002001F0D6FFCD
:10331000E92001F0DFFFAA2001F0D0FF002001F03A
:10332000CDFF002001F0CAFF002001F0C7FF002000
:1033300001F0D0FFAA2001F0C1FFCF2001F0CAFFA9
:10334000002001F0BBFF002001F0B8FF002001F0D9
:10335000B5FF002001F0B2FF002001F0AFFF002018
:1033600001F0ACFF002001F0A9FF002001F0A6FF52
:10337000002001F0A3FF002001F0A0FF002001F0D9
:103380009DFF002001F09AFF002001F097FF002030
:1033900001F094FF002001F091FF002001F08EFF6A
:1033A000002001F08BFFF02001F094FF002001F0DD
:1033B00085FF502001F082FF002001F07FFF0020F8
:1033C00001F07CFF002001F079FFF32001F082FF83
:1033D000002001F073FFF92001F07CFF062001F0CE
:1033E0006DFF102001F06AFF292001F067FF002027
:1033F00001F064FF3A2001F06DFF552001F05EFFFF
:10340000112001F067FF6420FEF7D4FC292001F0B1
:1034100061FF352001F05EFF002001F04FFF5120D9
:1034200001F058FFFF2001F049FF532001F052FF47
:103430002C2001F043FF552001F04CFF822001F0C9
:103440003DFF2C2001F046FF10BD10B555214FF473
:10345000704001F055FFAA214FF2010001F050FF2A
:1034600052214FF2020001F04BFF08214FF20300FE
:1034700001F046FF01214FF2040001F041FF0D2150
:103480004FF4304001F03CFF0D214BF2010001F000
:1034900037FF0D214BF2020001F032FF34214FF4CF
:1034A000364001F02DFF34214BF2016001F028FF7E
:1034B00034214BF2026001F023FF0D214FF4314023
:1034C00001F01EFF0D214BF2011001F019FF0D213B
:1034D0004BF2021001F014FF34214FF4374001F099
:1034E0000FFF34214BF2017001F00AFF34214BF23F
:1034F000027001F005FF00214FF4324001F000FF9F
:1035000000214BF2012001F0FBFE00214BF20220D2
:1035100001F0F6FE24214FF4384001F0F1FE2421A1
:103520004BF6010001F0ECFE24214BF6020001F005
:10353000E7FE01214FF43F4001F0E2FE0F214FF47E
:10354000334001F0DDFE0F214BF2013001F0D8FED7
:103550000F214BF2023001F0D3FE34214FF43940F9
:1035600001F0CEFE34214BF6011001F0C9FE3421EA
:103570004BF6021001F0C4FE08214FF4354001F073
:10358000BFFE08214BF2015001F0BAFE08214BF2B8
:10359000025001F0B5FE03214FF4424001F0B0FEAD
:1035A00024214FF43A4001F0ABFE24214BF60120D8
:1035B00001F0A6FE24214BF6022001F0A1FE00211D
:1035C0004FF43C4001F09CFE78214BF6014001F0A5
:1035D00097FE00214BF6024001F092FE00214FF4CD
:1035E0003D4001F08DFE78214BF6015001F088FE40
:1035F00000214BF6025001F083FE00214FF43E40C3
:1036000001F07EFE64214BF6016001F079FE00219D
:103610004FF4514001F074FE33214DF2011001F0DE
:103620006FFE00214DF2021001F06AFE34214DF2CE
:10363000031001F065FE00214DF2041001F060FE60
:103640003A214DF2051001F05BFE00214DF206100B
:1036500001F056FE4A214DF2071001F051FE002103
:103660004DF2081001F04CFE5C214DF2091001F002
:1036700047FE00214DF20A1001F042FE81214DF279
:103680000B1001F03DFE00214DF20C1001F038FE50
:10369000A6214DF20D1001F033FE00214DF20E1067
:1036A00001F02EFEE5214DF20F1001F029FE01215F
:1036B0004DF2101001F024FE13214DF2111001F013
:1036C0001FFE01214DF2121001F01AFE54214DF29D
:1036D000131001F015FE01214DF2141001F010FE3F
:1036E00082214DF2151001F00BFE01214DF2161052
:1036F00001F006FECA214DF2171001F001FE022171
:103700004DF2181001F0FCFD00214DF2191001F0EE
:10371000F7FD02214DF21A1001F0F2FD01214DF2E8
:103720001B1001F0EDFD02214DF21C1001F0E8FD2F
:1037300034214DF21D1001F0E3FD02214DF21E1067
:1037400001F0DEFD67214DF21F1001F0D9FD0221CD
:103750004DF2201001F0D4FD84214DF2211001F032
:10376000CFFD02214DF2221001F0CAFDA4214DF23D
:10377000231001F0C5FD02214DF2241001F0C0FD1F
:10378000B7214DF2251001F0BBFD02214DF22610AC
:1037900001F0B6FDCF214DF2271001F0B1FD02215D
:1037A0004DF2281001F0ACFDDE214DF2291001F0A0
:1037B000A7FD02214DF22A1001F0A2FDF2214DF2E7
:1037C0002B1001F09DFD02214DF22C1001F098FD0F
:1037D000FE214DF22D1001F093FD03214DF22E102C
:1037E00001F08EFD10214DF22F1001F089FD032113
:1037F0004DF2301001F084FD33214DF2311001F013
:103800007FFD03214DF2321001F07AFD6D214DF262
:10381000331001F075FD00214FF4524001F070FDAE
:1038200033214DF2012001F06BFD00214DF2022009
:1038300001F066FD34214DF2032001F061FD00210D
:103840004DF2042001F05CFD3A214DF2052001F01B
:1038500057FD00214DF2062001F052FD4A214DF2A4
:10386000072001F04DFD00214DF2082001F048FD38
:103870005C214DF2092001F043FD00214DF20A20A8
:1038800001F03EFD81214DF20B2001F039FD0021B8
:103890004DF20C2001F034FDA6214DF20D2001F077
:1038A0002FFD00214DF20E2001F02AFDE5214DF201
:1038B0000F2001F025FD01214DF2102001F020FD27
:1038C00013214DF2112001F01BFD01214DF21220B8
:1038D00001F016FD54214DF2132001F011FD0121DC
:1038E0004DF2142001F00CFD82214DF2152001F063
:1038F00007FD01214DF2162001F002FDCA214DF213
:10390000172001F0FDFC02214DF2182001F0F8FC17
:1039100000214DF2192001F0F3FC02214DF21A2092
:1039200001F0EEFC01214DF21B2001F0E9FC022127
:103930004DF21C2001F0E4FC34214DF21D2001F079
:10394000DFFC02214DF21E2001F0DAFC67214DF26E
:103950001F2001F0D5FC02214DF2202001F0D0FC07
:1039600084214DF2212001F0CBFC02214DF22220D6
:1039700001F0C6FCA4214DF2232001F0C1FC02217C
:103980004DF2242001F0BCFCB7214DF2252001F0BE
:10399000B7FC02214DF2262001F0B2FCCF214DF2FE
:1039A000272001F0ADFC02214DF2282001F0A8FCF7
:1039B000DE214DF2292001F0A3FC02214DF22A2044
:1039C00001F09EFCF2214DF22B2001F099FC022126
:1039D0004DF22C2001F094FCFE214DF22D2001F03F
:1039E0008FFC03214DF22E2001F08AFC10214DF2B4
:1039F0002F2001F085FC03214DF2302001F080FCE6
:103A000033214DF2312001F07BFC03214DF23220B5
:103A100001F076FC6D214DF2332001F071FC0021A4
:103A20004FF4534001F06CFC33214DF2013001F0B2
:103A300067FC00214DF2023001F062FC34214DF2AE
:103A4000033001F05DFC00214DF2043001F058FC20
:103A50003A214DF2053001F053FC00214DF20630C1
:103A600001F04EFC4A214DF2073001F049FC0021E3
:103A70004DF2083001F044FC5C214DF2093001F0B8
:103A80003FFC00214DF20A3001F03AFC81214DF259
:103A90000B3001F035FC00214DF20C3001F030FC10
:103AA000A6214DF20D3001F02BFC00214DF20E301D
:103AB00001F026FCE5214DF20F3001F021FC01213F
:103AC0004DF2103001F01CFC13214DF2113001F0C9
:103AD00017FC01214DF2123001F012FC54214DF27D
:103AE000133001F00DFC01214DF2143001F008FCFF
:103AF00082214DF2153001F003FC01214DF2163008
:103B000001F0FEFBCA214DF2173001F0F9FB022152
:103B10004DF2183001F0F4FB00214DF2193001F0A4
:103B2000EFFB02214DF21A3001F0EAFB01214DF2C8
:103B30001B3001F0E5FB02214DF21C3001F0E0FBEF
:103B400034214DF21D3001F0DBFB02214DF21E301D
:103B500001F0D6FB67214DF21F3001F0D1FB0221AD
:103B60004DF2203001F0CCFB84214DF2213001F0E8
:103B7000C7FB02214DF2223001F0C2FBA4214DF21D
:103B8000233001F0BDFB02214DF2243001F0B8FBDF
:103B9000B7214DF2253001F0B3FB02214DF2263062
:103BA00001F0AEFBCF214DF2273001F0A9FB02213D
:103BB0004DF2283001F0A4FBDE214DF2293001F056
:103BC0009FFB02214DF22A3001F09AFBF2214DF2C7
:103BD0002B3001F095FB02214DF22C3001F090FBCF
:103BE000FE214DF22D3001F08BFB03214DF22E30E2
:103BF00001F086FB10214DF22F3001F081FB0321F3
:103C00004DF2303001F07CFB33214DF2313001F0C8
:103C100077FB03214DF2323001F072FB6D214DF242
:103C2000333001F06DFB00214FF4544001F068FB8C
:103C300033214DF2014001F063FB00214DF20240BF
:103C400001F05EFB34214DF2034001F059FB0021ED
:103C50004DF2044001F054FB3A214DF2054001F0D1
:103C60004FFB00214DF2064001F04AFB4A214DF284
:103C7000074001F045FB00214DF2084001F040FBF8
:103C80005C214DF2094001F03BFB00214DF20A405E
:103C900001F036FB81214DF20B4001F031FB002198
:103CA0004DF20C4001F02CFBA6214DF20D4001F02D
:103CB00027FB00214DF20E4001F022FBE5214DF2E1
:103CC0000F4001F01DFB01214DF2104001F018FBE7
:103CD00013214DF2114001F013FB01214DF212406E
:103CE00001F00EFB54214DF2134001F009FB0121BC
:103CF0004DF2144001F004FB82214DF2154001F019
:103D0000FFFA01214DF2164001F0FAFACA214DF2F4
:103D1000174001F0F5FA02214DF2184001F0F0FAD7
:103D200000214DF2194001F0EBFA02214DF21A4048
:103D300001F0E6FA01214DF21B4001F0E1FA022107
:103D40004DF21C4001F0DCFA34214DF21D4001F02F
:103D5000D7FA02214DF21E4001F0D2FA67214DF24E
:103D60001F4001F0CDFA02214DF2204001F0C8FAC7
:103D700084214DF2214001F0C3FA02214DF222408C
:103D800001F0BEFAA4214DF2234001F0B9FA02215C
:103D90004DF2244001F0B4FAB7214DF2254001F074
:103DA000AFFA02214DF2264001F0AAFACF214DF2DE
:103DB000274001F0A5FA02214DF2284001F0A0FAB7
:103DC000DE214DF2294001F09BFA02214DF22A40FA
:103DD00001F096FAF2214DF22B4001F091FA022106
:103DE0004DF22C4001F08CFAFE214DF22D4001F0F5
:103DF00087FA03214DF22E4001F082FA10214DF294
:103E00002F4001F07DFA03214DF2304001F078FAA5
:103E100033214DF2314001F073FA03214DF232406B
:103E200001F06EFA6D214DF2334001F069FA002184
:103E30004FF4554001F064FA33214DF2015001F086
:103E40005FFA00214DF2025001F05AFA34214DF28E
:103E5000035001F055FA00214DF2045001F050FAE0
:103E60003A214DF2055001F04BFA00214DF2065077
:103E700001F046FA4A214DF2075001F041FA0021C3
:103E80004DF2085001F03CFA5C214DF2095001F06E
:103E900037FA00214DF20A5001F032FA81214DF239
:103EA0000B5001F02DFA00214DF20C5001F028FAD0
:103EB000A6214DF20D5001F023FA00214DF20E50D3
:103EC00001F01EFAE5214DF20F5001F019FA01211F
:103ED0004DF2105001F014FA13214DF2115001F07F
:103EE0000FFA01214DF2125001F00AFA54214DF25D
:103EF000135001F005FA01214DF2145001F000FABF
:103F000082214DF2155001F0FBF901214DF21650BE
:103F100001F0F6F9CA214DF2175001F0F1F9022132
:103F20004DF2185001F0ECF900214DF2195001F05A
:103F3000E7F902214DF21A5001F0E2F901214DF2A8
:103F40001B5001F0DDF902214DF21C5001F0D8F9AF
:103F500034214DF21D5001F0D3F902214DF21E50D3
:103F600001F0CEF967214DF21F5001F0C9F902218D
:103F70004DF2205001F0C4F984214DF2215001F09E
:103F8000BFF902214DF2225001F0BAF9A4214DF2FD
:103F9000235001F0B5F902214DF2245001F0B0F99F
:103FA000B7214DF2255001F0ABF902214DF2265018
:103FB00001F0A6F9CF214DF2275001F0A1F902211D
:103FC0004DF2285001F09CF9DE214DF2295001F00C
:103FD00097F902214DF22A5001F092F9F2214DF2A7
:103FE0002B5001F08DF902214DF22C5001F088F98F
:103FF000FE214DF22D5001F083F903214DF22E5098
:1040000001F07EF910214DF22F5001F079F90321D2
:104010004DF2305001F074F933214DF2315001F07E
:104020006FF903214DF2325001F06AF96D214DF222
:10403000335001F065F900214FF4564001F060F96A
:1040400033214DF2016001F05BF900214DF2026075
:1040500001F056F934214DF2036001F051F90021CD
:104060004DF2046001F04CF93A214DF2056001F087
:1040700047F900214DF2066001F042F94A214DF264
:10408000076001F03DF900214DF2086001F038F9B8
:104090005C214DF2096001F033F900214DF20A6014
:1040A00001F02EF981214DF20B6001F029F9002178
:1040B0004DF20C6001F024F9A6214DF20D6001F0E3
:1040C0001FF900214DF20E6001F01AF9E5214DF2C1
:1040D0000F6001F015F901214DF2106001F010F9A7
:1040E00013214DF2116001F00BF901214DF2126024
:1040F00001F006F954214DF2136001F001F901219C
:104100004DF2146001F0FCF882214DF2156001F0CF
:10411000F7F801214DF2166001F0F2F8CA214DF2D4
:10412000176001F0EDF802214DF2186001F0E8F897
:1041300000214DF2196001F0E3F802214DF21A60FE
:1041400001F0DEF801214DF21B6001F0D9F80221E7
:104150004DF21C6001F0D4F834214DF21D6001F0E5
:10416000CFF802214DF21E6001F0CAF867214DF22E
:104170001F6001F0C5F802214DF2206001F0C0F887
:1041800084214DF2216001F0BBF802214DF2226042
:1041900001F0B6F8A4214DF2236001F0B1F802213C
:1041A0004DF2246001F0ACF8B7214DF2256001F02A
:1041B000A7F802214DF2266001F0A2F8CF214DF2BE
:1041C000276001F09DF802214DF2286001F098F877
:1041D000DE214DF2296001F093F802214DF22A60B0
:1041E00001F08EF8F2214DF22B6001F089F80221E6
:1041F0004DF22C6001F084F8FE214DF22D6001F0AB
:104200007FF803214DF22E6001F07AF810214DF273
:104210002F6001F075F803214DF2306001F070F865
:1042200033214DF2316001F06BF803214DF2326021
:1042300001F066F86D214DF2336001F061F855210F
:104240004FF4704001F05CF8AA214FF2010001F038
:1042500057F852214FF2020001F052F808214FF2B4
:10426000030001F04DF800214FF2040001F048F87E
:10427000CC214FF4314001F043F800214BF2011002
:1042800001F03EF805214FF4364001F039F8702175
:104290004FF4374001F034F870214BF2017001F017
:1042A0002FF801214FF4384001F02AF803214BF692
:1042B000010001F025F803214BF6020001F020F87F
:1042C00003214BF6030001F01BF802214FF43C40A0
:1042D00001F016F800214BF6014001F011F8002121
:1042E0004BF6024001F00CF8D0214FF4494001F0A8
:1042F00007F802214CF6011001F002F850214CF6AB
:10430000021000F0FDFF50214CF6031000F0F8FF02
:1043100050214CF6041000F0F3FF00214FF45450EC
:1043200000F0EEFF55214FF4685000F0E9FF4FF424
:10433000885000F0CFFF7820FDF746FD4FF4245061
:1043400000F0C8FF10BD10B5E22000F0C3FF1D2033
:1043500000F0B4FF022000F0B1FF042000F0AEFF37
:104360006420FDF731FDE02000F0B4FF012000F0F3
:10437000A5FF0A20FDF71EFDE02000F0ABFF0320A3
:1043800000F09CFF0C20FDF715FD012000F0A2FFBE
:104390000A20FDF70FFDE62000F09CFF2F2000F023
:1043A0008DFFFF2000F08AFFFF2000F087FFB02084
:1043B00000F090FF202000F081FF002000F07EFF41
:1043C000032000F07BFF40F21F3000F077FF012058
:1043D00000F074FF40F2DF1000F070FF002000F0EA
:1043E0006DFFB42000F076FF042000F067FF40F27C
:1043F0001F4000F063FF002000F060FF2E2000F05F
:104400005DFF002000F05AFF002000F057FF002061
:1044100000F054FF002000F051FFB62000F05AFFDA
:10442000022000F04BFF4FF4037000F047FF002024
:1044300000F044FF172000F041FF152000F03EFF80
:10444000002000F03BFF002000F038FFF02000F0DB
:1044500041FF032000F032FF292000F03BFFD02075
:1044600000F038FF002000F029FFBE2000F032FFEE
:10447000052000F023FFFE2000F020FF012000F0C7
:104480001DFF002000F01AFF002000F017FF0020A1
:1044900000F014FFB82000F01DFF032000F00EFF15
:1044A000012000F00BFFBA2000F014FF012000F003
:1044B00005FF10BD10B5112000F00CFF7820FDF7AE
:1044C00079FC362000F006FF002000F0F7FE3A20CD
:1044D00000F000FF052000F0F1FEB22000F0FAFE2F
:1044E0000C2000F0EBFE0C2000F0E8FE002000F0B5
:1044F000E5FE332000F0E2FE332000F0DFFEB720BF
:1045000000F0E8FE352000F0D9FEBB2000F0E2FE0E
:10451000322000F0D3FEC02000F0DCFE0C2000F0C2
:10452000CDFEC22000F0D6FE012000F0C7FEC32061
:1045300000F0D0FE102000F0C1FEC42000F0CAFE42
:10454000202000F0BBFEC62000F0C4FE0F2000F0CB
:10455000B5FED02000F0BEFEA42000F0AFFEA120EA
:1045600000F0ACFEE02000F0B5FED02000F0A6FE8A
:10457000002000F0A3FE022000F0A0FE072000F0C3
:104580009DFE0A2000F09AFE282000F097FE3220BF
:1045900000F094FE442000F091FE422000F08EFED8
:1045A000062000F08BFE0E2000F088FE122000F0A6
:1045B00085FE142000F082FE172000F07FFEE1202F
:1045C00000F088FED02000F079FE002000F076FE9A
:1045D000022000F073FE072000F070FE0A2000F0B9
:1045E0006DFE282000F06AFE312000F067FE5420A6
:1045F00000F064FE472000F061FE0E2000F05EFE39
:104600001C2000F05BFE172000F058FE1B2000F07D
:1046100055FE1E2000F052FE2A2000F05BFE002016
:1046200000F04CFE002000F049FE002000F046FEA5
:10463000EF2000F043FE2B2000F04CFE002000F0A5
:104640003DFE002000F03AFE012000F037FE3F2042
:1046500000F034FE292000F03DFE10BD10B5112001
:1046600000F038FE7820FDF7A5FB362000F032FE82
:10467000482000F023FE3A2000F02CFE552000F0E8
:104680001DFEF02000F026FEC32000F017FEF020F3
:1046900000F020FE962000F011FEB42000F01AFE7B
:1046A000012000F00BFEB62000F014FE0A2000F0FE
:1046B00005FEA22000F002FEB72000F00BFEC6208F
:1046C00000F0FCFDB92000F005FE022000F0F6FD30
:1046D000E02000F0F3FDC02000F0FCFD802000F0A1
:1046E000EDFD162000F0EAFDC12000F0F3FD1920D9
:1046F00000F0E4FDC22000F0EDFDA72000F0DEFD9B
:10470000C52000F0E7FD162000F0D8FDE82000F0FD
:10471000E1FD402000F0D2FD8A2000F0CFFD002016
:1047200000F0CCFD002000F0C9FD292000F0C6FDFE
:10473000192000F0C3FDA52000F0C0FD332000F0DB
:10474000BDFDE02000F0C6FDF02000F0B7FD072021
:1047500000F0B4FD0D2000F0B1FD042000F0AEFD2E
:10476000052000F0ABFD142000F0A8FD362000F07D
:10477000A5FD542000F0A2FD4C2000F09FFD382044
:1047800000F09CFD132000F099FD142000F096FD30
:104790002E2000F093FD342000F090FDE12000F089
:1047A00099FDF02000F08AFD102000F087FD142014
:1047B00000F084FD0E2000F081FD0C2000F07EFD55
:1047C000082000F07BFD352000F078FD442000F04B
:1047D00075FD4C2000F072FD262000F06FFD1020CA
:1047E00000F06CFD122000F069FD2C2000F066FD49
:1047F000322000F063FDF02000F06CFD3C2000F062
:104800005DFDF02000F066FD692000F057FD782086
:10481000FDF7D0FA212000F05DFD292000F05AFDBF
:1048200010BD000000B595B000BF00BF0020019092
:10483000F748006840F04000F54908600846006805
:1048400000F04000019000BF00BF00BF00BF00BFEC
:10485000002001900846006840F008000860084603
:10486000006800F00800019000BF00BF00BF00BF5B
:1048700000BF002001900846006840F00800086072
:104880000846006800F00800019000BF00BF00BFAC
:1048900000BF00BF002001900846006840F04000C3
:1048A00008600846006800F04000019000BF00BFAB
:1048B00000BF00BF00BF002001900846006840F024
:1048C000800008600846006800F08000019000BF8A
:1048D00000BF00BF88141090022011900120129098
:1048E000022013900C20149010A9CA48FBF7EEFF89
:1048F0002020109010A9C848FBF7E8FF1020109066
:1049000010A9C548FBF7E2FF0120109010A9C1488B
:10491000FBF7DCFF4FF4007010900120119010A9FC
:10492000BE48FBF7D3FF4FF02040BD490860BD48AB
:104930004860062088600021B948C16010214161AB
:1049400000218161C16141624FF480518162002187
:10495000C1624FF4804101630021416381630F20F4
:10496000099000200A903C200B9000200F90092015
:10497000029000200390092004900020089002AAD1
:1049800009A9A748FCF7FCFC3220FDF713FAD32055
:1049900000F0A0FC00F0D2F9A349888000F0CEF925
:1049A000A149888000F0CAF99F498880084680881C
:1049B0004FF6FF7101EA00209B49888000F0BEF9A4
:1049C000994989880843984988800846808849F22F
:1049D000413188427ED0042000F07CFC00F0AEF92A
:1049E0009149888000F0AAF98F49888000F0A6F9E3
:1049F0008D498880084680884FF6FF7101EA0020C3
:104A00008949888000F09AF987498988084386494E
:104A100088800846808848F25251884203D147F284
:104A20008970814988808048808847F289718842EE
:104A3000D0D0D42000F04EFC00F080F97A49888074
:104A400000F07CF97849888000F078F97649888010
:104A5000084680884FF6FF7101EA0020724988807D
:104A600000F06CF97049898808436F4988800846CE
:104A7000808845F210318842ACD0D32000F02AFC67
:104A800000F05CF96849888000F058F96649888030
:104A900000F054F964498880084680884FF6FF7119
:104AA00001EA00206049888000F048F95E49898861
:104AB00008435D4988800846808847F2967188429D
:104AC00088D055214FF4704000F01AFCAA214FF213
:104AD000010000E07CE000F013FC52214FF20200E4
:104AE00000F00EFC08214FF2030000F009FC012148
:104AF0004FF2040000F004FC4FF4454000F0EAFBE4
:104B000000F01CF948498880084680884FF6FF71FC
:104B100001EA0020444988804CF2015000F0DAFBA1
:104B200000F00CF94049898808433F4988800520F6
:104B3000FDF740F93C48808845F21051884247D043
:104B4000D32000F0C7FB00F0F9F83749888000F067
:104B5000F5F83549888000F0F1F833498880084637
:104B600080884FF6FF7101EA00202F49888000F00D
:104B7000E5F82D49898808432B49888008468088B4
:104B800049F60601884223D0A12000F0A3FB00F0E3
:104B9000D5F82549888000F0D1F823498880084657
:104BA00080884FF6FF7101EA00201F49888000F0DD
:104BB000C5F81D49898808431B49888008468088B4
:104BC00045F26171884203D141F66310164988802D
:104BD0001548818815A0FBF7C3FB1348808847F26E
:104BE0008971884202D1FFF765FC4BE00E4880884E
:104BF00049F24131884202D1FDF7F8F942E00A4812
:104C0000808845F21031884216D1FDF7A5FC39E0C5
:104C10003038024000180240000C0240001C0240E4
:104C200030010020040100A0800100204C434420FA
:104C300049443A25780D0A003A48808847F296712F
:104C4000884202D1FFF70AFD1CE03648808845F211
:104C50001051884202D1FEF7F8FB13E031488088FA
:104C600049F60601884202D1FDF7D6FA0AE02D483E
:104C7000808841F66311884204D1FFF764FB642009
:104C800000F0ECFA2748808847F2897188420BD0FF
:104C90002448808849F24131884205D021488088E3
:104CA00041F6631188420AD10320029004901E4904
:104CB0000B6B8A68486802A9FBF72AFD21E01948B6
:104CC000808845F21031884211D01648808847F21A
:104CD000967188420BD01348808845F21051884263
:104CE00005D01048808849F60601884209D1022083
:104CF000029004900C490B6B8A68486802A9FBF784
:104D000007FD0020FDF7ACF800BF01225102074863
:104D1000FBF7E8FE00BF4FF6FF70FDF787F815B010
:104D200000BD00008001002030010020001C024076
:104D300000BF011EA0F10100FBD1704708B50220A1
:104D4000FFF7F6FF024800880090BDF8000008BD9C
:104D50000008006CF0B50546002400278B488079D8
:104D6000012805D18948808841F66311884208D11D
:104D700086488079F0B98548808841F66311884279
:104D800018D1082D15D2DFE805F00406080A0C0E2C
:104D9000101206250DE007250BE0042509E0052586
:104DA00007E0012505E0002503E0032501E00225D9
:104DB00000BF00BF082D1CD2DFE805F00406090C77
:104DC0000F12151800BF14E044F0800411E044F005
:104DD00040040EE044F0C0040BE044F0200408E07E
:104DE00044F0600405E044F0A00402E044F0E00474
:104DF00000BF00BF36276548808845F210518842C1
:104E000000D13F026148808849F2413188420BD08D
:104E10005E48808847F28971884205D05B48808867
:104E200047F29671884201D144F008042146384681
:104E300000F066FA5548808841F6631188421DD01B
:104E400004F0200068B151480088504949888842E0
:104E500014DA4E48068840884C4908800846468047
:104E60000CE04A48008849494988884206DD47489D
:104E7000068840884549088008464680434880881F
:104E800045F21051884252D14049488900F022FA37
:104E9000002000F013FA3D494989491C88B200F00E
:104EA00019FA002000F00AFA38494989891C88B2A9
:104EB00000F010FA35490988491EC1F30F2000F0AF
:104EC000FDF932494989C91C88B200F003FA2F491B
:104ED0000978491EC8B200F0F1F92C49888900F020
:104EE000F9F9002000F0EAF928498989491C88B2BB
:104EF00000F0F0F9002000F0E1F924498989891CCB
:104F000088B200F0E7F921494988491EC1F30F2012
:104F100000F0D4F91D498989C91C88B200F0DAF97A
:104F20001A498978491EC8B200F0C8F92DE017491E
:104F3000488900F0CFF9002000F0C0F9002000F00F
:104F4000BDF912490988491EC1F30F2000F0B6F9D6
:104F50000E490978491EC8B200F0B0F90B4988899A
:104F600000F0B8F9002000F0A9F9002000F0A6F93F
:104F700006494988491EC1F30F2000F09FF90349F3
:104F80008978491EC8B200F099F9F0BD800100206F
:104F900010B502460C464548808841F663118842A8
:104FA00047D142488079A8B940480088401E801AFD
:104FB00082B23E49488900F08DF9002000F07EF968
:104FC000002000F07BF9101200F078F9D0B200F068
:104FD00075F916E03549488900F07CF9101200F0A7
:104FE0006DF9D0B200F06AF930490988491EC1F361
:104FF0000F2000F063F92D490978491EC8B200F06E
:105000005DF92A49888900F065F9201200F056F907
:10501000E0B200F053F925494988491EC1F30F2039
:1050200000F04CF921498978491EC8B200F046F9D0
:105030003AE01E48808845F21051884220D11B4931
:10504000488900F047F9101200F038F917494989EA
:10505000491C88B200F03EF9D0B200F02FF9134994
:10506000888900F037F9201200F028F90F49898962
:10507000491C88B200F02EF9E0B200F01FF913E0ED
:105080000A49488900F026F9101200F017F9D0B249
:1050900000F014F90549888900F01CF9201200F08D
:1050A0000DF9E0B200F00AF910BD00008001002007
:1050B0002DE9FC4F80460E4615461C46B34600209F
:1050C000019000902046E31704EB5373DB10214658
:1050D0004FEAE47C04EB5C7C4FEAEC0CA4EBCC0CD8
:1050E000BCF1000F02D04FF0010C01E04FF0000CBA
:1050F0006344224604EBD27C4FEA6C0C03FB0CF3B6
:10510000DBB20193A5F12000C5B20C2C06D0102C07
:105110000BD0182C0ED0202C18D112E005EB450036
:105120002D4901EB8000009012E02C4800EB0510A7
:1051300000900DE005EBC500294901EB80000090CF
:1051400006E0284800EB8510009001E0BDE8FC8FE8
:1051500000BF00273AE0009810F807904FF0000ACF
:105160002EE009F0800028B1314640460C9AFCF749
:105170002DFF07E00B9828B91B48314602684046CE
:10518000FCF724FF4FEA49604FEA1069701C86B2B1
:1051900016484088B04200DCD8E7A6EB0B00A042DE
:1051A0000AD15E4608F101001FFA80F80F48008816
:1051B000404500DCCAE706E00AF1010000F0FF0A02
:1051C000BAF1080FCDDB00BF781CC7B20198874247
:1051D000C1DB00BFBAE70000D65800084A5D0008EE
:1051E0003A6300089670000820000020800100202B
:1051F0002DE9FC4F04460D4690469946DDE90C7AB0
:105200000B9E04F0FF0B08EB04001FFA80F809EB7B
:1052100005001FFA80F917E0444502DB5C46A81937
:1052200085B24D4500DB15E00020CDE9000A3A7853
:10523000334629462046FFF73BFF304606EBD07148
:1052400004EB61018CB27F1C38787E2802DC387850
:105250002028E1DA00BFBDE8FC8F000070B52DED1D
:10526000048B0446BE2000F035F8052000F026F837
:10527000204600F00EFA41EC190B9FED0E0B53EC9B
:10528000102B00F019FA41EC180B00F0D5F985B29B
:10529000284600F013F8012000F010F8FF2000F07D
:1052A0000DF8002000F00AF8002000F007F8BDEC2F
:1052B000048B70BD666666666666044001B5BDF81F
:1052C00000000090BDF800000149088008BD000002
:1052D0000008006C01B5BDF800000090BDF80000AA
:1052E0000149088008BD0000FE07006C02480089E3
:1052F000024908807047000080010020FE07006C12
:10530000024A1080921C118070470000FE07006C5A
:1053100000B587B000BF00BF002001901F480068A3
:1053200040F010001D4908600846006800F01000B9
:10533000019000BF00BF00BF00BF00BF0020019070
:105340000846006840F0100008600846006800F059
:105350001000019000BF00BF00BF01200290039029
:1053600004900220059002A90D48FBF7AFFA022035
:10537000029002A90A48FBF7A9FA00BF01221146D0
:105380000748FBF7AFFB00BF00BF01220221044822
:10539000FBF7A8FB00BF07B000BD0000303802409B
:1053A0000010024086B00024FBF7BAFB072302225C
:1053B00008214FF4A87000F0BDF8A820FCF7F4FC19
:1053C0004FF4E13000F01CF9FFF7A2FFFFF72AFAD3
:1053D0004FF47840484908604848828848A103A8AB
:1053E000FAF7CAFF87E00C2C41D2DFE804F0060B85
:1053F0000F13181D22272C31363B4FF6FF70FCF798
:1054000015FD34E00020FCF711FD30E01F20FCF713
:105410000DFD2CE04FF47840FCF708FD27E04FF637
:105420001F00FCF703FD22E04FF4FC60FCF7FEFCDC
:105430001DE040F2FF70FCF7F9FC18E04FF6E07059
:10544000FCF7F4FC13E04FF60740FCF7EFFC0EE02E
:1054500048F23040FCF7EAFC09E04CF21860FCF737
:10546000E5FC04E04BF64040FCF7E0FC00BF00BF69
:105470004FF4784025A120221346CDE90021029067
:10548000F02228210A20FFF7B3FE4FF4784021A133
:1054900018221346CDE900210290F02250210A2063
:1054A000FFF7A6FE4FF478401DA110221346CDE968
:1054B00000210290F0226E210A20FFF799FE4FF49E
:1054C000784003A910221346CDE900210290F02272
:1054D00082210A20FFF78CFE601CC4B20C2C00D184
:1054E000002400BF01211248FBF7F2FA00BF4FF47D
:1054F0007A70FCF75FFC76E71C000020800100203A
:105500004C43442049443A253034580053544D33D9
:10551000320000005446544C434420544553540038
:1055200041544F4D40414C49454E54454B000000BD
:10553000001002402DE9F04192B080460C4615461D
:105540001E46002700BF002000902A48006840F057
:105550008050284908600846006800F0805000909C
:1055600000BF00BF00BF002000902348006840F447
:105570008040214908600846006800F4804000909F
:1055800000BF00BF0120019000040290022007909C
:1055900041050891CDF8288009940B950C9601A837
:1055A000FBF7A0FC07461FB1012012B0BDE8F08157
:1055B0000F200D9002200E9000200F904FF4A0506D
:1055C00010904FF48050119005210DA8FBF74AFB75
:1055D00007460FB10120E8E7FBF78AFA41F2010123
:1055E000884205D10548006840F48070034908608E
:1055F0000020DAE74038024000700040003C0240E2
:1056000010B5044609480A4908600846446000216C
:105610008160C160016181610C214161FCF772F818
:10562000012204490248FCF70BF910BD00100140AB
:10563000EC0000201A0000204FEA1153A3F580630C
:10564000D3F11E03A8BFD3F1200C08DB4FF00042BA
:1056500042EAC12252EA505232FA03F0704709423C
:105660000BD4102BC4BF0020704703F5787CBCF12D
:10567000FF3F05D04FF0FF3070474FF000007047FC
:1056800070B500F0C3F800BF499224800020704735
:10569000F0E7B0FA80F310FA03F10AD0C3F11D036A
:1056A00003F580634FEA41504FEA035202EBD121E8
:1056B00070474FF000007047DFF848C170B51CEA32
:1056C000111E1EBF1CEA13159EEA0C0F95EA0C0F63
:1056D00000F06F8081EA030423EA4C134EEAD47E83
:1056E00021EA4C1141F4801143F48013AE44A1FB34
:1056F000024CA0FB0365AEF17F7E361955EB0C051D
:10570000A1FB034C4CF10003A0FB021C16EB0C06A2
:10571000654153F10003094218BF46F0010613F436
:10572000007F0BD14FEA03314FEA0530340341EAE1
:10573000155140EA16506FF003020AE04FEAC32108
:105740004FEAC520F40241EA555140EA56506FF045
:10575000020202EB2E4201EB025585EACE710AD01D
:105760005FEA440C18BF24F0004450F1000041F1FE
:10577000000120EAD47040F2FE7C624500D270BD88
:10578000A84214BF4FF080444FF04044002E08BFA1
:105790000024BEF1806FA8BFA1F1C041BDE87040F8
:1057A00080F282804FF0000001F1C04101F0004121
:1057B00070479EEA0C0F0CEA131518BF95EA0C0F00
:1057C00006D04FF0000081EA030E0EF0004170BDDC
:1057D00000F01CF88900013E00F007B800F009B89D
:1057E0004FEA430C5FEA5C5C08D081EA030100F0F9
:1057F0005BB84FEA410C5FEA5C5CF6D14FF0000009
:10580000014970470000FF070000F87F0EF1020E0B
:105810002EF0030E5EF8046B364205D4012A43EBEA
:10582000030515F5001F12D8012841EB010C1CF5EA
:10583000001F0CD80ED14FEAD17C15F5001F0CEBE0
:105840004C0C0CF1020C08BF4CEBD37C04E04FF085
:10585000080C01E04FEAD37C0CEB4C0526FA05F668
:1058600006F00706B6F1040C06D20EEB860CBDE876
:1058700070404CF0010C6047DFE80CF0090B0202AD
:105880004FF000414FF00000A1F5002170BD194616
:105890001046012851EB010418BFD4F5001484BF51
:1058A000002001F0004170BD0808A0F500114FEA8A
:1058B000310170474FF04070E1EE100A7047000070
:1058C00000000000000001020304060708090000B0
:1058D00000000102030400000000000000000000BE
:1058E0000000000000003F40000000000000000039
:1058F0003000400030004000000009000BC03D00B7
:105900000BC03D00090018C024407FE022403180D8
:105910000000180024C01B000D803240018003806D
:105920001C4027401C800740004010006000000021
:105930000000000000000000000000001F80204068
:1059400040200000402020401F800000000009008F
:1059500006001F80060009000000040004003F80CC
:1059600004000400000000100060000000000000BF
:105970000000040004000400040004000000000013
:1059800000400000000000000000002001C00600F0
:105990003800400000001F802040204020401F8031
:1059A0000000000010403FC000400000000018C090
:1059B0002140224024401840000010802040244014
:1059C00024401B80000002000D0011003FC0014078
:1059D00000003C80244024402440238000001F809D
:1059E000244024403440038000003000200027C0C1
:1059F0003800200000001B802440244024401B80ED
:105A000000001C0022C0224022401F800000000035
:105A100000000840000000000000000000000460DA
:105A2000000000000000000004000A0011002080B7
:105A300040400900090009000900090000000000B9
:105A40004040208011000A0004001800200023407C
:105A50002400180000001F802040274029401F40DC
:105A60000000004007C039000F0001C00040204086
:105A70003FC0244024401B8000001F802040204065
:105A800020403080000020403FC0204020401F8048
:105A9000000020403FC024402E4030C00000204085
:105AA0003FC024402E00300000000F001080204036
:105AB00022403380020020403FC0040004003FC069
:105AC0002040204020403FC0204020400000006097
:105AD000202020203FC02000200020403FC0244044
