:020000040800F2
:100000007006002029020008090300080103000807
:1000100005030008E30200082D03000800000000AB
:100020000000000000000000000000000D030008B8
:10003000E7020008000000000B0300080F0300089F
:10004000430200084302000843020008430200087C
:10005000430200084302000843020008430200086C
:10006000430200084302000843020008430200085C
:10007000430200084302000843020008430200084C
:10008000430200084302000843020008430200083C
:10009000430200084302000843020008430200082C
:1000A000430200084302000843020008430200081C
:1000B000430200084302000843020008430200080C
:1000C00043020008430200084302000843020008FC
:1000D00043020008430200084302000843020008EC
:1000E00043020008430200084302000843020008DC
:1000F00043020008430200084302000843020008CC
:1001000043020008430200084302000843020008BB
:1001100043020008430200084302000843020008AB
:10012000430200084302000843020008430200089B
:10013000430200084302000843020008430200088B
:10014000430200084302000843020008430200087B
:10015000430200084302000843020008430200086B
:10016000430200084302000843020008430200085B
:100170004302000843020008430200080000000098
:10018000430200084302000800F002F800F03CF8C7
:100190000AA090E8000C82448344AAF10107DA45E2
:1001A00001D100F031F8AFF2090EBAE80F0013F0F8
:1001B000010F18BFFB1A43F0010318478401000028
:1001C000A4010000103A24BF78C878C1FAD85207B9
:1001D00024BF30C830C144BF04680C6070470000C1
:1001E0000023002400250026103A28BF78C1FBD840
:1001F000520728BF30C148BF0B6070471FB500F0E1
:1002000099F81FBD10B510BD00F031F81146FFF789
:10021000F5FF00F08DF800F04FF803B4FFF7F2FFA0
:1002200003BC00F057F80000094880470948004720
:10023000FEE7FEE7FEE7FEE7FEE7FEE7FEE7FEE796
:10024000FEE7FEE704480549054A064B70470000F3
:1002500019030008890100087000002070060020C2
:10026000700200207002002070477047704775468A
:1002700000F02CF8AE4605006946534620F0070012
:10028000854618B020B5FFF7DDFFBDE820404FF0F0
:1002900000064FF000074FF000084FF0000B21F070
:1002A0000701AC46ACE8C009ACE8C009ACE8C0093D
:1002B000ACE8C0098D46704710B50446AFF3008026
:1002C0002046BDE81040FFF7A8BF00000048704777
:1002D0000C00002001491820ABBEFEE726000200FA
:1002E000704700BFFEE7704703480068034909787C
:1002F0000844014908607047000000200800002001
:1003000000BFFEE700BFFEE770477047704710B5BB
:10031000FFF7EAFF10BD00000348006840F47000DA
:10032000014908607047000088ED00E000BFFEE76B
:1003300000BFFEE74FF04070E1EE100A704700008A
:1003400060030008000000200C000000C401000849
:100350006C0300080C00002064060000E0010008A7
:0C03600000000000100000000100000080
:040000050800018965
:00000001FF
